{
  "address": "0x68B1D87F95878fE05B998F19b66F4baba5De1aed",
  "abi": [
    {
      "inputs": [
        {
          "internalType": "contract IERC20",
          "name": "token1",
          "type": "address"
        },
        {
          "internalType": "contract IERC20",
          "name": "token2",
          "type": "address"
        },
        {
          "internalType": "string",
          "name": "name",
          "type": "string"
        },
        {
          "internalType": "string",
          "name": "symbol",
          "type": "string"
        },
        {
          "internalType": "address",
          "name": "poolOwner",
          "type": "address"
        }
      ],
      "name": "deploy",
      "outputs": [
        {
          "internalType": "contract Swap",
          "name": "pool",
          "type": "address"
        }
      ],
      "stateMutability": "nonpayable",
      "type": "function"
    }
  ],
  "transactionHash": "0x1d343f6140534eaa54b03e0b8fa74fc1c3b39af3b1da226d732b4281f4bbb134",
  "args": [],
  "numDeployments": 1,
  "solcInputHash": "5c2e1cb50205ed71a0daeb9fe0a0c667",
  "bytecode": "0x608060405234801561001057600080fd5b50615ac4806100206000396000f3fe608060405234801561001057600080fd5b506004361061002b5760003560e01c8063b92440b014610030575b600080fd5b61004361003e366004610160565b61005f565b6040516001600160a01b03909116815260200160405180910390f35b6000878787878787336040516100749061010b565b610084979695949392919061022f565b604051809103906000f0801580156100a0573d6000803e3d6000fd5b5060405163f2fde38b60e01b81526001600160a01b0384811660048301529192509082169063f2fde38b90602401600060405180830381600087803b1580156100e857600080fd5b505af11580156100fc573d6000803e3d6000fd5b50505050979650505050505050565b6157f1806200029e83390190565b60008083601f84011261012a578182fd5b50813567ffffffffffffffff811115610141578182fd5b60208301915083602082850101111561015957600080fd5b9250929050565b600080600080600080600060a0888a03121561017a578283fd5b873561018581610285565b9650602088013561019581610285565b9550604088013567ffffffffffffffff808211156101b1578485fd5b6101bd8b838c01610119565b909750955060608a01359150808211156101d5578485fd5b506101e28a828b01610119565b90945092505060808801356101f681610285565b8091505092959891949750929550565b81835281816020850137506000828201602090810191909152601f909101601f19169091010190565b600060018060a01b03808a168352808916602084015260a0604084015261025a60a08401888a610206565b838103606085015261026d818789610206565b92505080841660808401525098975050505050505050565b6001600160a01b038116811461029a57600080fd5b5056fe60c06040523480156200001157600080fd5b50604051620057f1380380620057f183398101604081905262000034916200055a565b80838381600390805190602001906200004f9291906200040b565b508051620000659060049060208401906200040b565b505050620000826200007c6200035a60201b60201c565b6200035e565b6001600655600780546001600160a01b0319166001600160a01b0383169081179091556040805163043759e560e31b815290516200012d92916321bacf28916004808301926020929190829003018186803b158015620000e157600080fd5b505afa158015620000f6573d6000803e3d6000fd5b505050506040513d601f19601f820116820180604052508101906200011c919062000603565b620003b060201b620028811760201c565b6008600001600001600d6101000a8154816001600160681b0302191690836001600160681b0316021790555062000197816001600160a01b031663b975d0bb6040518163ffffffff1660e01b815260040160206040518083038186803b158015620000e157600080fd5b600c600001600001600d6101000a8154816001600160681b0302191690836001600160681b0316021790555062000201816001600160a01b0316639386e8b26040518163ffffffff1660e01b815260040160206040518083038186803b158015620000e157600080fd5b601080546001600160681b0392909216600160681b02600160681b600160d01b0319909216919091179055508251620002815760405162461bcd60e51b815260206004820152601360248201527f537761703a204e616d6520497320456d7074790000000000000000000000000060448201526064015b60405180910390fd5b6000825111620002d45760405162461bcd60e51b815260206004820152601560248201527f537761703a2053796d626f6c20497320456d7074790000000000000000000000604482015260640162000278565b836001600160a01b0316856001600160a01b03161415620003385760405162461bcd60e51b815260206004820152601860248201527f537761703a2054776f20546f6b656e732049732053616d650000000000000000604482015260640162000278565b5050506001600160601b0319606092831b8116608052911b1660a05262000688565b3390565b600580546001600160a01b038381166001600160a01b0319831681179093556040519116919082907f8be0079c531659141344cd1fd0a4f28419497f9722a3daafe3b4186f6b6457e090600090a35050565b6000600160681b8210620004075760405162461bcd60e51b815260206004820152601e60248201527f76616c756520646f6573206e6f742066697420696e2031303420626974730000604482015260640162000278565b5090565b82805462000419906200061c565b90600052602060002090601f0160209004810192826200043d576000855562000488565b82601f106200045857805160ff191683800117855562000488565b8280016001018555821562000488579182015b82811115620004885782518255916020019190600101906200046b565b50620004079291505b8082111562000407576000815560010162000491565b600082601f830112620004b8578081fd5b81516001600160401b0380821115620004d557620004d562000659565b604051601f8301601f19908116603f0116810190828211818310171562000500576200050062000659565b816040528381526020925086838588010111156200051c578485fd5b8491505b838210156200053f578582018301518183018401529082019062000520565b838211156200055057848385830101525b9695505050505050565b600080600080600060a0868803121562000572578081fd5b85516200057f816200066f565b602087015190955062000592816200066f565b60408701519094506001600160401b0380821115620005af578283fd5b620005bd89838a01620004a7565b94506060880151915080821115620005d3578283fd5b50620005e288828901620004a7565b9250506080860151620005f5816200066f565b809150509295509295909350565b60006020828403121562000615578081fd5b5051919050565b600181811c908216806200063157607f821691505b602082108114156200065357634e487b7160e01b600052602260045260246000fd5b50919050565b634e487b7160e01b600052604160045260246000fd5b6001600160a01b03811681146200068557600080fd5b50565b60805160601c60a05160601c6150db620007166000396000818161087e01528181610c5e015281816112ba01528181611356015281816115c701528181611f340152818161274001526133d201526000818161030501528181610c390152818161128301528181611304015281816115a201528181611ed201528181612710015261339501526150db6000f3fe6080604052600436106102935760003560e01c806393028d831161015a578063cad07066116100c1578063e331d0391161007a578063e331d03914610919578063e4b50cb81461092c578063ee5d18591461094c578063f2fde38b14610992578063f3bf09bb146109b2578063f76d13b4146109ed57600080fd5b8063cad0706614610827578063ced72f8714610847578063d21220a71461086c578063d2fd9eba146108a0578063d5bcb9b5146108c0578063dd62ed3e146108d357600080fd5b8063a9059cbb11610113578063a9059cbb146106d9578063aa6ca808146106f9578063ac9d6f951461071b578063b1ec4c4014610786578063bd10cd80146107e7578063c515ee231461080757600080fd5b806393028d831461063c578063936f0a151461065157806395d89b41146106715780639ab7fdd6146106865780639ea5ce0a146106a6578063a457c2d7146106b957600080fd5b8063487ca261116101fe57806370a08231116101b757806370a0823114610584578063715018a6146105a4578063728c769a146105b957806378e3214f146105de5780638da5cb5b146105fe578063907e4f361461061c57600080fd5b8063487ca261146104c85780634b4c9ce5146104ea5780635915d8061461050a5780635a08c2611461052a5780636515aa291461054a5780636669302a1461056f57600080fd5b806323b872dd1161025057806323b872dd146103fe5780632a519ec81461041e5780633049105d1461043e578063313ce5671461045f578063395093511461047b5780633c6216a61461049b57600080fd5b806306fdde0314610298578063095ea7b3146102c35780630dfe1681146102f357806318160ddd1461033f5780631a08b5551461035e5780631f495dda146103c3575b600080fd5b3480156102a457600080fd5b506102ad610a02565b6040516102ba9190614e42565b60405180910390f35b3480156102cf57600080fd5b506102e36102de366004614a43565b610a94565b60405190151581526020016102ba565b3480156102ff57600080fd5b506103277f000000000000000000000000000000000000000000000000000000000000000081565b6040516001600160a01b0390911681526020016102ba565b34801561034b57600080fd5b506002545b6040519081526020016102ba565b34801561036a57600080fd5b506008546001600160681b0380821691600160681b810490911690600160d01b900465ffffffffffff165b604080516001600160681b03948516815293909216602084015265ffffffffffff16908201526060016102ba565b3480156103cf57600080fd5b506010546001600160681b0380821691600160681b810490911690600160d01b900465ffffffffffff16610395565b34801561040a57600080fd5b506102e3610419366004614a03565b610aae565b34801561042a57600080fd5b506103506104393660046149af565b610ad4565b61045161044c366004614a6e565b610b8d565b6040516102ba929190614f16565b34801561046b57600080fd5b50604051601281526020016102ba565b34801561048757600080fd5b506102e3610496366004614a43565b610bad565b3480156104a757600080fd5b506104bb6104b6366004614c60565b610bec565b6040516102ba9190614e34565b3480156104d457600080fd5b506104e86104e3366004614beb565b610eb2565b005b3480156104f657600080fd5b506103506105053660046149af565b610fd2565b34801561051657600080fd5b506104bb610525366004614c1b565b61105a565b34801561053657600080fd5b506104e8610545366004614beb565b61106d565b34801561055657600080fd5b50600c54600160681b90046001600160681b0316610350565b34801561057b57600080fd5b506104e8611194565b34801561059057600080fd5b5061035061059f3660046149af565b6111d3565b3480156105b057600080fd5b506104e86111ee565b3480156105c557600080fd5b50601054600160681b90046001600160681b0316610350565b3480156105ea57600080fd5b506104e86105f9366004614a43565b611222565b34801561060a57600080fd5b506005546001600160a01b0316610327565b34801561062857600080fd5b50600754610327906001600160a01b031681565b34801561064857600080fd5b506104e86113cf565b34801561065d57600080fd5b5061035061066c3660046149af565b61140c565b34801561067d57600080fd5b506102ad611494565b34801561069257600080fd5b506103506106a13660046149af565b6114a3565b6104516106b4366004614aa2565b61155c565b3480156106c557600080fd5b506102e36106d4366004614a43565b611e05565b3480156106e557600080fd5b506102e36106f4366004614a43565b611ea2565b34801561070557600080fd5b5061070e611eb0565b6040516102ba9190614de7565b34801561072757600080fd5b506107616107363660046149af565b6016602052600090815260409020546001600160d81b03811690600160d81b900464ffffffffff1682565b604080516001600160d81b03909316835264ffffffffff9091166020830152016102ba565b34801561079257600080fd5b506107c76107a13660046149af565b6014602052600090815260409020546001600160801b0380821691600160801b90041682565b604080516001600160801b039384168152929091166020830152016102ba565b3480156107f357600080fd5b506103506108023660046149af565b611f97565b34801561081357600080fd5b50610350610822366004614b0a565b612050565b34801561083357600080fd5b506104e8610842366004614beb565b61209d565b34801561085357600080fd5b50600854600160681b90046001600160681b0316610350565b34801561087857600080fd5b506103277f000000000000000000000000000000000000000000000000000000000000000081565b3480156108ac57600080fd5b506104e86108bb3660046149af565b61220f565b6103506108ce366004614b1e565b61234d565b3480156108df57600080fd5b506103506108ee3660046149cb565b6001600160a01b03918216600090815260016020908152604080832093909416825291909152205490565b610350610927366004614b7c565b612367565b34801561093857600080fd5b50610327610947366004614beb565b612706565b34801561095857600080fd5b506107616109673660046149af565b6015602052600090815260409020546001600160d81b03811690600160d81b900464ffffffffff1682565b34801561099e57600080fd5b506104e86109ad3660046149af565b6127ac565b3480156109be57600080fd5b50600c546001600160681b0380821691600160681b810490911690600160d01b900465ffffffffffff16610395565b3480156109f957600080fd5b506104e8612844565b606060038054610a1190615014565b80601f0160208091040260200160405190810160405280929190818152602001828054610a3d90615014565b8015610a8a5780601f10610a5f57610100808354040283529160200191610a8a565b820191906000526020600020905b815481529060010190602001808311610a6d57829003601f168201915b5050505050905090565b600033610aa28185856128da565b60019150505b92915050565b600033610abc8582856129ff565b610ac7858585612a91565b60019150505b9392505050565b6000610aa8600760009054906101000a90046001600160a01b03166001600160a01b0316639386e8b26040518163ffffffff1660e01b815260040160206040518083038186803b158015610b2757600080fd5b505afa158015610b3b573d6000803e3d6000fd5b505050506040513d601f19601f82011682018060405250810190610b5f9190614c03565b6001600160a01b03841660009081526013602090815260409182902082519182019092529054815290612c6a565b6000610b9761487e565b610ba284843361155c565b915091509250929050565b3360008181526001602090815260408083206001600160a01b0387168452909152812054909190610aa29082908690610be7908790614f55565b6128da565b610bf461487e565b60026006541415610c205760405162461bcd60e51b8152600401610c1790614edf565b60405180910390fd5b6002600655604080518082019091526001600160a01b037f0000000000000000000000000000000000000000000000000000000000000000811682527f00000000000000000000000000000000000000000000000000000000000000001660208201526000610c8e60025490565b90506000610cac6010546001600160681b03600160681b9091041690565b9050610cb83388612c8f565b60005b6002811015610e4f576000848260028110610ce657634e487b7160e01b600052603260045260246000fd5b602002015190506000610d026001600160a01b03831630612de6565b90506000610d1a86610d14848e612e80565b90612e8c565b9050610d306001600160a01b0384168a83612e98565b80888560028110610d5157634e487b7160e01b600052603260045260246000fd5b6020020152895184101580610d8d5750898481518110610d8157634e487b7160e01b600052603260045260246000fd5b60200260200101518110155b610dd95760405162461bcd60e51b815260206004820152601a60248201527f537761703a20526573756c74204973204e6f7420456e6f7567680000000000006044820152606401610c17565b610e098583610de8898f612ef6565b6001600160a01b03871660009081526016602052604090209291908a612f02565b610e398583610e18898f612ef6565b6001600160a01b03871660009081526015602052604090209291908a612f02565b5050508080610e4790615049565b915050610cbb565b508351602080860151604080518b8152928301939093528183015290516001600160a01b0387169133917f3cae9923fd3c2f468aa25a8ef687923e37f957459557c0380fd06526c0b8cdbc9181900360600190a350506001600655509392505050565b662386f26fc10000811115610f005760405162461bcd60e51b815260206004820152601460248201527308ccaca40acdee8ca4092e640a8dede4090d2ced60631b6044820152606401610c17565b336000818152600b6020908152604091829020825191820190925290548152610fcf9190610f2d84612f5f565b610f36336111d3565b600254600760009054906101000a90046001600160a01b03166001600160a01b03166321bacf286040518163ffffffff1660e01b815260040160206040518083038186803b158015610f8757600080fd5b505afa158015610f9b573d6000803e3d6000fd5b505050506040513d601f19601f82011682018060405250810190610fbf9190614c03565b6008959493929190612f8e612fe2565b50565b600080610fe86001600160a01b03841630612de6565b9050610acd61105461100a6010546001600160681b03600160681b9091041690565b6001600160a01b0386166000908152601560209081526040918290208251808401909352546001600160d81b0381168352600160d81b900464ffffffffff16908201529084612ffd565b82613058565b61106261487e565b610acd838333610bec565b670de0b6b3a76400008111156110c55760405162461bcd60e51b815260206004820152601d60248201527f536c6970706167652046656520566f746520497320546f6f20486967680000006044820152606401610c17565b336000818152600f6020908152604091829020825191820190925290548152610fcf91906110f284612f5f565b6110fb336111d3565b600254600760009054906101000a90046001600160a01b03166001600160a01b031663b975d0bb6040518163ffffffff1660e01b815260040160206040518083038186803b15801561114c57600080fd5b505afa158015611160573d6000803e3d6000fd5b505050506040513d601f19601f820116820180604052508101906111849190614c03565b600c95949392919061306f612fe2565b336000818152600f6020908152604080832081518084018352905481528151808401835284905281519283019091529181526111d19291906110f2565b565b6001600160a01b031660009081526020819052604090205490565b6005546001600160a01b031633146112185760405162461bcd60e51b8152600401610c1790614e75565b6111d160006130b9565b600260065414156112455760405162461bcd60e51b8152600401610c1790614edf565b60026006556005546001600160a01b031633146112745760405162461bcd60e51b8152600401610c1790614e75565b60006112a96001600160a01b037f00000000000000000000000000000000000000000000000000000000000000001630612de6565b905060006112e06001600160a01b037f00000000000000000000000000000000000000000000000000000000000000001630612de6565b90506112f66001600160a01b0385163385612e98565b8161132a6001600160a01b037f00000000000000000000000000000000000000000000000000000000000000001630612de6565b10156113485760405162461bcd60e51b8152600401610c1790614eaa565b8061137c6001600160a01b037f00000000000000000000000000000000000000000000000000000000000000001630612de6565b101561139a5760405162461bcd60e51b8152600401610c1790614eaa565b6103e86113a6306111d3565b10156113c45760405162461bcd60e51b8152600401610c1790614eaa565b505060016006555050565b336000818152600b6020908152604080832081518084018352905481528151808401835284905281519283019091529181526111d1929190610f2d565b6000806114226001600160a01b03841630612de6565b9050610acd61148e6114446010546001600160681b03600160681b9091041690565b6001600160a01b0386166000908152601660209081526040918290208251808401909352546001600160d81b0381168352600160d81b900464ffffffffff16908201529084612ffd565b8261310b565b606060048054610a1190615014565b6000610aa8600760009054906101000a90046001600160a01b03166001600160a01b031663b975d0bb6040518163ffffffff1660e01b815260040160206040518083038186803b1580156114f657600080fd5b505afa15801561150a573d6000803e3d6000fd5b505050506040513d601f19601f8201168201806040525081019061152e9190614c03565b6001600160a01b0384166000908152600f602090815260409182902082519182019092529054815290612c6a565b600061156661487e565b600260065414156115895760405162461bcd60e51b8152600401610c1790614edf565b6002600655604080518082019091526001600160a01b037f0000000000000000000000000000000000000000000000000000000000000000811682527f00000000000000000000000000000000000000000000000000000000000000001660208201526116058160005b60200201516001600160a01b03161590565b611629576116148160016115f3565b61161f57600061162c565b602086015161162c565b85515b341461167a5760405162461bcd60e51b815260206004820152601760248201527f537761703a2057726f6e672056616c75652055736167650000000000000000006044820152606401610c17565b600061168560025490565b9050806118a8576116996103e86063612e80565b93506116a7306103e861311a565b60005b60028110156118a2576116e1858983600281106116d757634e487b7160e01b600052603260045260246000fd5b6020020151613058565b9450600088826002811061170557634e487b7160e01b600052603260045260246000fd5b60200201511161174e5760405162461bcd60e51b8152602060048201526014602482015273537761703a20416d6f756e74204973205a65726f60601b6044820152606401610c17565b86816002811061176e57634e487b7160e01b600052603260045260246000fd5b602002015188826002811061179357634e487b7160e01b600052603260045260246000fd5b602002015110156117e65760405162461bcd60e51b815260206004820152601c60248201527f537761703a204d696e20416d6f756e74204e6f742052656163686564000000006044820152606401610c17565b61184633308a846002811061180b57634e487b7160e01b600052603260045260246000fd5b602002015186856002811061183057634e487b7160e01b600052603260045260246000fd5b60200201516001600160a01b0316929190613205565b87816002811061186657634e487b7160e01b600052603260045260246000fd5b602002015184826002811061188b57634e487b7160e01b600052603260045260246000fd5b60200201528061189a81615049565b9150506116aa565b50611d47565b6118b061487e565b60005b60028110156119645761192d6118e28583600281106115f357634e487b7160e01b600052603260045260246000fd5b6118ed5760006118ef565b345b6119273087856002811061191357634e487b7160e01b600052603260045260246000fd5b60200201516001600160a01b031690612de6565b9061335c565b82826002811061194d57634e487b7160e01b600052603260045260246000fd5b60200201528061195c81615049565b9150506118b3565b50600019945060005b60028110156119ea576119d6866119d184846002811061199d57634e487b7160e01b600052603260045260246000fd5b6020020151610d148d86600281106119c557634e487b7160e01b600052603260045260246000fd5b60200201518890612e80565b61310b565b9550806119e281615049565b91505061196d565b508460005b6002811015611c2a5760008a8260028110611a1a57634e487b7160e01b600052603260045260246000fd5b602002015111611a635760405162461bcd60e51b8152602060048201526014602482015273537761703a20416d6f756e74204973205a65726f60601b6044820152606401610c17565b6000611aac85610d14611a77600183614fd1565b611aa687898860028110611a9b57634e487b7160e01b600052603260045260246000fd5b602002015190612e80565b90612ef6565b9050898260028110611ace57634e487b7160e01b600052603260045260246000fd5b6020020151811015611b225760405162461bcd60e51b815260206004820152601c60248201527f537761703a204d696e20416d6f756e74204e6f742052656163686564000000006044820152606401610c17565b611b4833308389866002811061183057634e487b7160e01b600052603260045260246000fd5b611b94848360028110611b6b57634e487b7160e01b600052603260045260246000fd5b60200201516119273089866002811061191357634e487b7160e01b600052603260045260246000fd5b878360028110611bb457634e487b7160e01b600052603260045260246000fd5b6020020152611c14886119d1868560028110611be057634e487b7160e01b600052603260045260246000fd5b6020020151610d148b8760028110611c0857634e487b7160e01b600052603260045260246000fd5b60200201518a90612e80565b9750508080611c2290615049565b9150506119ef565b50601054600160681b90046001600160681b031660005b6002811015611d4257611cd882858360028110611c6e57634e487b7160e01b600052603260045260246000fd5b6020020151611c7d888c612ef6565b88601660008c8860028110611ca257634e487b7160e01b600052603260045260246000fd5b60200201516001600160a01b03166001600160a01b03168152602001908152602001600020612f0290949392919063ffffffff16565b611d3082858360028110611cfc57634e487b7160e01b600052603260045260246000fd5b6020020151611d0b888c612ef6565b88601560008c8860028110611ca257634e487b7160e01b600052603260045260246000fd5b80611d3a81615049565b915050611c41565b505050505b60008411611d975760405162461bcd60e51b815260206004820152601a60248201527f537761703a20526573756c74204973204e6f7420456e6f7567680000000000006044820152606401610c17565b611da1858561311a565b825160208085015160408051888152928301939093528183015290516001600160a01b0387169133917f8bab6aed5a508937051a144e61d6e61336834a66aaee250a00613ae6f744c4229181900360600190a3505060016006559094909350915050565b3360008181526001602090815260408083206001600160a01b038716845290915281205490919083811015611e8a5760405162461bcd60e51b815260206004820152602560248201527f45524332303a2064656372656173656420616c6c6f77616e63652062656c6f77604482015264207a65726f60d81b6064820152608401610c17565b611e9782868684036128da565b506001949350505050565b600033610aa2818585612a91565b60408051600280825260608083018452926020830190803683370190505090507f000000000000000000000000000000000000000000000000000000000000000081600081518110611f1257634e487b7160e01b600052603260045260246000fd5b60200260200101906001600160a01b031690816001600160a01b0316815250507f000000000000000000000000000000000000000000000000000000000000000081600181518110611f7457634e487b7160e01b600052603260045260246000fd5b60200260200101906001600160a01b031690816001600160a01b03168152505090565b6000610aa8600760009054906101000a90046001600160a01b03166001600160a01b03166321bacf286040518163ffffffff1660e01b815260040160206040518083038186803b158015611fea57600080fd5b505afa158015611ffe573d6000803e3d6000fd5b505050506040513d601f19601f820116820180604052508101906120229190614c03565b6001600160a01b0384166000908152600b602090815260409182902082519182019092529054815290612c6a565b600061209584848461206188610fd2565b61206a8861140c565b600854600160681b90046001600160681b0316600c54600160681b90046001600160681b0316613368565b949350505050565b61012c8111156120ef5760405162461bcd60e51b815260206004820152601d60248201527f446563617920506572696f6420566f746520497320546f6f20486967680000006044820152606401610c17565b603c8110156121405760405162461bcd60e51b815260206004820152601c60248201527f446563617920506572696f6420566f746520497320546f6f204c6f77000000006044820152606401610c17565b33600081815260136020908152604091829020825191820190925290548152610fcf919061216d84612f5f565b612176336111d3565b600254600760009054906101000a90046001600160a01b03166001600160a01b0316639386e8b26040518163ffffffff1660e01b815260040160206040518083038186803b1580156121c757600080fd5b505afa1580156121db573d6000803e3d6000fd5b505050506040513d601f19601f820116820180604052508101906121ff9190614c03565b60109594939291906134b1612fe2565b6005546001600160a01b031633146122395760405162461bcd60e51b8152600401610c1790614e75565b600780546001600160a01b0319166001600160a01b038316179055604080516393028d8360e01b8152905130916393028d8391600480830192600092919082900301818387803b15801561228c57600080fd5b505af11580156122a0573d6000803e3d6000fd5b50505050306001600160a01b0316636669302a6040518163ffffffff1660e01b8152600401600060405180830381600087803b1580156122df57600080fd5b505af11580156122f3573d6000803e3d6000fd5b50505050306001600160a01b031663f76d13b46040518163ffffffff1660e01b8152600401600060405180830381600087803b15801561233257600080fd5b505af1158015612346573d6000803e3d6000fd5b5050505050565b600061235d868686868633612367565b9695505050505050565b60006002600654141561238c5760405162461bcd60e51b8152600401610c1790614edf565b6002600655600754604080516308bcf8b560e21b815290516001600160a01b03909216916322f3e2d491600480820192602092909190829003018186803b1580156123d657600080fd5b505afa1580156123ea573d6000803e3d6000fd5b505050506040513d601f19601f8201168201806040525081019061240e9190614aea565b61245a5760405162461bcd60e51b815260206004820152601960248201527f537761703a20466163746f72792049732053687574646f776e000000000000006044820152606401610c17565b6001600160a01b03871615612470576000612472565b845b34146124b45760405162461bcd60e51b8152602060048201526011602482015270537761703a2057726f6e672056616c756560781b6044820152606401610c17565b600060405180604001604052806124fe6124de8b6001600160a01b03166001600160a01b03161590565b6124e95760006124eb565b345b6119276001600160a01b038d1630612de6565b81526020016125166001600160a01b038a1630612de6565b8152509050600061253a604051806040016040528060008152602001600081525090565b600060405180604001604052806125616008546001600160681b03600160681b9091041690565b8152602001612580600c546001600160681b03600160681b9091041690565b905290506125938b8b8b8b8a89876134fb565b8094508197508295505050508a6001600160a01b0316866001600160a01b0316336001600160a01b03167fbd99c6719f088aa0abd9e7b7a4a635d1f931601e9f304b538dc42be25d8c65c68d878a886000015189602001518f604051612631969594939291906001600160a01b039687168152602081019590955260408501939093526060840191909152608083015290911660a082015260c00190565b60405180910390a4612646838689878561379a565b6001600160a01b038b16600090815260146020526040812080548592906126779084906001600160801b0316614f2a565b82546101009290920a6001600160801b038181021990931691831602179091556001600160a01b038d166000908152601460205260409020805488935090916010916126cc918591600160801b900416614f2a565b92506101000a8154816001600160801b0302191690836001600160801b031602179055505050505060016006819055509695505050505050565b60008161273457507f0000000000000000000000000000000000000000000000000000000000000000919050565b816001141561276457507f0000000000000000000000000000000000000000000000000000000000000000919050565b60405162461bcd60e51b815260206004820152601f60248201527f537761703a20506f6f6c2048617665204f6e6c792054776f20546f6b656e73006044820152606401610c17565b6005546001600160a01b031633146127d65760405162461bcd60e51b8152600401610c1790614e75565b6001600160a01b03811661283b5760405162461bcd60e51b815260206004820152602660248201527f4f776e61626c653a206e6577206f776e657220697320746865207a65726f206160448201526564647265737360d01b6064820152608401610c17565b610fcf816130b9565b33600081815260136020908152604080832081518084018352905481528151808401835284905281519283019091529181526111d192919061216d565b6000600160681b82106128d65760405162461bcd60e51b815260206004820152601e60248201527f76616c756520646f6573206e6f742066697420696e20313034206269747300006044820152606401610c17565b5090565b6001600160a01b03831661293c5760405162461bcd60e51b8152602060048201526024808201527f45524332303a20617070726f76652066726f6d20746865207a65726f206164646044820152637265737360e01b6064820152608401610c17565b6001600160a01b03821661299d5760405162461bcd60e51b815260206004820152602260248201527f45524332303a20617070726f766520746f20746865207a65726f206164647265604482015261737360f01b6064820152608401610c17565b6001600160a01b0383811660008181526001602090815260408083209487168084529482529182902085905590518481527f8c5be1e5ebec7d5bd14f71427d1e84f3dd0314c0f7b2291e5b200ac8c7c3b92591015b60405180910390a3505050565b6001600160a01b038381166000908152600160209081526040808320938616835292905220546000198114612a8b5781811015612a7e5760405162461bcd60e51b815260206004820152601d60248201527f45524332303a20696e73756666696369656e7420616c6c6f77616e63650000006044820152606401610c17565b612a8b84848484036128da565b50505050565b6001600160a01b038316612af55760405162461bcd60e51b815260206004820152602560248201527f45524332303a207472616e736665722066726f6d20746865207a65726f206164604482015264647265737360d81b6064820152608401610c17565b6001600160a01b038216612b575760405162461bcd60e51b815260206004820152602360248201527f45524332303a207472616e7366657220746f20746865207a65726f206164647260448201526265737360e81b6064820152608401610c17565b612b62838383613c85565b6001600160a01b03831660009081526020819052604090205481811015612bda5760405162461bcd60e51b815260206004820152602660248201527f45524332303a207472616e7366657220616d6f756e7420657863656564732062604482015265616c616e636560d01b6064820152608401610c17565b6001600160a01b03808516600090815260208190526040808220858503905591851681529081208054849290612c11908490614f55565b92505081905550826001600160a01b0316846001600160a01b03167fddf252ad1be2c89b69c2b068fc378daa952ba7f163c4a11628f55a4df523b3ef84604051612c5d91815260200190565b60405180910390a3612a8b565b815160009015612c89578251612c8290600190614fd1565b9050610aa8565b50919050565b6001600160a01b038216612cef5760405162461bcd60e51b815260206004820152602160248201527f45524332303a206275726e2066726f6d20746865207a65726f206164647265736044820152607360f81b6064820152608401610c17565b612cfb82600083613c85565b6001600160a01b03821660009081526020819052604090205481811015612d6f5760405162461bcd60e51b815260206004820152602260248201527f45524332303a206275726e20616d6f756e7420657863656564732062616c616e604482015261636560f01b6064820152608401610c17565b6001600160a01b0383166000908152602081905260408120838303905560028054849290612d9e908490614fd1565b90915550506040518281526000906001600160a01b038516907fddf252ad1be2c89b69c2b068fc378daa952ba7f163c4a11628f55a4df523b3ef906020016129f2565b505050565b60006001600160a01b038316612e0757506001600160a01b03811631610aa8565b6040516370a0823160e01b81526001600160a01b0383811660048301528416906370a082319060240160206040518083038186803b158015612e4857600080fd5b505afa158015612e5c573d6000803e3d6000fd5b505050506040513d601f19601f82011682018060405250810190612c829190614c03565b6000610acd8284614fb2565b6000610acd8284614f92565b8015612de1576001600160a01b038316612ee2576040516001600160a01b0383169082156108fc029083906000818181858888f19350505050158015612a8b573d6000803e3d6000fd5b612de16001600160a01b0384168383613f75565b6000610acd8284614f55565b61234685612f5a83610d14612f1882600161335c565b604080518082019091528b546001600160d81b0381168252600160d81b900464ffffffffff166020820152611aa6908990612f54908d8d612ffd565b90612e80565b613fd8565b6040805160208101909152600081526040518060200160405280836001612f869190614f55565b905292915050565b6040805184815283151560208201529081018290526001600160a01b038516907fc00d9debcc1737a88e76a969557b14246f013c43c1328eab2cbac00c1714d0ca906060015b60405180910390a250505050565b612ff3888888888889898989614016565b5050505050505050565b600080613022846119d1876020015164ffffffffff164261335c90919063ffffffff16565b90506000613030858361335c565b905061235d85610d146130438786612e80565b8951611aa6906001600160d81b031686612e80565b6000818310156130685781610acd565b5090919050565b6040805184815283151560208201529081018290526001600160a01b038516907f4ad9a834867d5460d12562e53fb43cfa76081110dbc58da81b8aeded6813639f90606001612fd4565b600580546001600160a01b038381166001600160a01b0319831681179093556040519116919082907f8be0079c531659141344cd1fd0a4f28419497f9722a3daafe3b4186f6b6457e090600090a35050565b60008183106130685781610acd565b6001600160a01b0382166131705760405162461bcd60e51b815260206004820152601f60248201527f45524332303a206d696e7420746f20746865207a65726f2061646472657373006044820152606401610c17565b61317c60008383613c85565b806002600082825461318e9190614f55565b90915550506001600160a01b038216600090815260208190526040812080548392906131bb908490614f55565b90915550506040518181526001600160a01b038316906000907fddf252ad1be2c89b69c2b068fc378daa952ba7f163c4a11628f55a4df523b3ef9060200160405180910390a35050565b8015612a8b576001600160a01b038416613347578034101561325f5760405162461bcd60e51b81526020600482015260136024820152720acc2d8eaca4092e640dcdee8408adcdeeaced606b1b6044820152606401610c17565b6001600160a01b03831633146132b05760405162461bcd60e51b8152602060048201526016602482015275233937b69024b9902737ba102a34329029b2b73232b960511b6044820152606401610c17565b6001600160a01b03821630146132f95760405162461bcd60e51b815260206004820152600e60248201526d546f204973204e6f74207468697360901b6044820152606401610c17565b80341115613342576001600160a01b0383166108fc613318348461335c565b6040518115909202916000818181858888f19350505050158015613340573d6000803e3d6000fd5b505b612a8b565b612a8b6001600160a01b0385168484846142b9565b6000610acd8284614fd1565b6000866001600160a01b0316886001600160a01b03161115613388579596955b6000861180156133c957507f00000000000000000000000000000000000000000000000000000000000000006001600160a01b0316886001600160a01b0316145b801561340657507f00000000000000000000000000000000000000000000000000000000000000006001600160a01b0316876001600160a01b0316145b156134a257600061342d613426670de0b6b3a7640000610d148a88612e80565b889061335c565b9050600061343b8783612ef6565b9050600061344d82610d14858a612e80565b9050600061347061345e8786612e80565b611927670de0b6b3a764000086612e80565b90506000613486670de0b6b3a764000085612e80565b905061349681610d148585612e80565b955050505050506134a6565b5060005b979650505050505050565b6040805184815283151560208201529081018290526001600160a01b038516907fdb1350180a01d00beab06bdea8ddb5c0cacdce847a28cfaaeabf9075c26d5aa090606001612fd4565b60008061351b604051806040016040528060008152602001600081525090565b601054600090600160681b90046001600160681b031686516001600160a01b038d166000908152601560209081526040918290208251808401909352546001600160d81b0381168352600160d81b900464ffffffffff169082015291925061358591908390612ffd565b80835286516135949190613058565b82526020868101516001600160a01b038c166000908152601683526040908190208151808301909252546001600160d81b0381168252600160d81b900464ffffffffff16928101929092526135eb91908390612ffd565b6020808401829052870151613600919061310b565b602083015261361a6001600160a01b038c1633308c613205565b8551613633906119276001600160a01b038e1630612de6565b93506136548b8b86856000015186602001518a600001518b60200151613368565b92506000831180156136665750878310155b6136b25760405162461bcd60e51b815260206004820152601a60248201527f537761703a2052657475726e204973204e6f7420456e6f7567680000000000006044820152606401610c17565b6136c66001600160a01b038b168885612e98565b85518251146136fd5781516136fd906136df9086612ef6565b6001600160a01b038d16600090815260156020526040902090613fd8565b856020015182602001511461373d57602082015161373d9061371f908561335c565b6001600160a01b038c16600090815260166020526040902090613fd8565b85516001600160a01b038c1660009081526016602052604090206137629183906142f1565b6020808701516001600160a01b038c1660009081526015909252604090912061378c9183906142f1565b509750975097945050505050565b600080600080600760009054906101000a90046001600160a01b03166001600160a01b03166323a65ab66040518163ffffffff1660e01b815260040160806040518083038186803b1580156137ee57600080fd5b505afa158015613802573d6000803e3d6000fd5b505050506040513d601f19601f820116820180604052508101906138269190614cae565b935093509350935060008060006ec097ce7bc90715b34b9f1000000000905061386e8960000151610d146138678f8d60000151612ef690919063ffffffff16565b8490612e80565b60208a015190915061388790610d14613867828f61335c565b90506ec097ce7bc90715b34b9f1000000000811115613c19576138a98161432d565b905060006138ce82610d146138c682670de0b6b3a764000061335c565b600254612f54565b90506001600160a01b038b166138e55760006138fb565b6138fb670de0b6b3a7640000610d14838b612e80565b93506001600160a01b038616613912576000613928565b613928670de0b6b3a7640000610d14838a612e80565b92506001600160a01b03851661395d578315613948576139488b8561311a565b821561395857613958868461311a565b613c17565b600084118061396c5750600083115b15613c17576000808411613981576000613984565b60015b60008611613993576000613996565b60015b6139a09190614f6d565b60ff16905060008167ffffffffffffffff8111156139ce57634e487b7160e01b600052604160045260246000fd5b6040519080825280602002602001820160405280156139f7578160200160208202803683370190505b50905060008267ffffffffffffffff811115613a2357634e487b7160e01b600052604160045260246000fd5b604051908082528060200260200182016040528015613a4c578160200160208202803683370190505b5090508d82600081518110613a7157634e487b7160e01b600052603260045260246000fd5b60200260200101906001600160a01b031690816001600160a01b0316815250508681600081518110613ab357634e487b7160e01b600052603260045260246000fd5b60209081029190910101528515613b3f578882613ad1600186614fd1565b81518110613aef57634e487b7160e01b600052603260045260246000fd5b6001600160a01b03909216602092830291909101909101528581613b14600186614fd1565b81518110613b3257634e487b7160e01b600052603260045260246000fd5b6020026020010181815250505b60405163024c5d4f60e21b81526001600160a01b03891690630931753c90613b6d9085908590600401614d64565b600060405180830381600087803b158015613b8757600080fd5b505af1925050508015613b98575060015b613c00577f08c379a0afcc32b1a39302f7cb8073359698411ab5fd6e3edb2c02c0b5fba8aa604051613bf390602080825260159082015274155c19185d194814995dd85c991cc811985a5b1959605a1b604082015260600190565b60405180910390a1613c13565b613c1388613c0e8989612ef6565b61311a565b5050505b505b88516020808b01518a518b83015160408051958652938501929092528383015260608301526080820185905260a08201849052517f2a368c7f33bb86e2d999940a3989d849031aff29b750f67947e6b8e8c3d2ffd69181900360c00190a1505050505050505050505050565b816001600160a01b0316836001600160a01b03161415613ca457505050565b6007546001600160a01b039081169060009085161580613d385750604051633b90b9bf60e01b81526001600160a01b038681166004830152831690633b90b9bf9060240160206040518083038186803b158015613d0057600080fd5b505afa158015613d14573d6000803e3d6000fd5b505050506040513d601f19601f82011682018060405250810190613d389190614aea565b15905060006001600160a01b0385161580613dc75750604051633b90b9bf60e01b81526001600160a01b038681166004830152841690633b90b9bf9060240160206040518083038186803b158015613d8f57600080fd5b505afa158015613da3573d6000803e3d6000fd5b505050506040513d601f19601f82011682018060405250810190613dc79190614aea565b15905081158015613dd6575080155b15613de357505050505050565b60006001600160a01b038716613dfa576000613e03565b613e03876111d3565b905060006001600160a01b038716613e1c576000613e25565b613e25876111d3565b90506000613e676001600160a01b03891615613e42576000613e44565b875b6119276001600160a01b038c1615613e5d576000613e5f565b895b600254611aa6565b905060006040518061010001604052808b6001600160a01b031681526020018a6001600160a01b03168152602001871515815260200186151581526020018981526020018581526020018481526020018381525090506000806000896001600160a01b031663edb7a6fa6040518163ffffffff1660e01b815260040160606040518083038186803b158015613efb57600080fd5b505afa158015613f0f573d6000803e3d6000fd5b505050506040513d601f19601f82011682018060405250810190613f339190614cf8565b925092509250613f488484612f8e60086143a4565b613f57848361306f600c6143a4565b613f6684826134b160106143a4565b50505050505050505050505050565b6040516001600160a01b038316602482015260448101829052612de190849063a9059cbb60e01b906064015b60408051601f198184030181529190526020810180516001600160e01b03166001600160e01b0319909316929092179091526144f1565b613fe1816145c3565b613fea42614618565b6001600160d81b039190911664ffffffffff909116600160d81b026001600160d81b0319161790915550565b600189015460028a015481908061402c8b511590565b156140425761403b818a61335c565b9050614063565b6140606140596140528d89612c6a565b8b90612e80565b849061335c565b92505b895161407a57614073818a612ef6565b905061409b565b61409861409161408a8c89612c6a565b8a90612e80565b8490612ef6565b92505b8383146140aa5760018d018390555b8181146140b95760028d018190555b600087156140de576140d988610d146140d2858b612e80565b8790612ef6565b6140e0565b865b905060008e6000016040518060600160405290816000820160009054906101000a90046001600160681b03166001600160681b03166001600160681b0316815260200160008201600d9054906101000a90046001600160681b03166001600160681b03166001600160681b0316815260200160008201601a9054906101000a900465ffffffffffff1665ffffffffffff1665ffffffffffff1681525050905080602001516001600160681b031682146142745760008f6000016040518060600160405290816000820160009054906101000a90046001600160681b03166001600160681b03166001600160681b0316815260200160008201600d9054906101000a90046001600160681b03166001600160681b03166001600160681b0316815260200160008201601a9054906101000a900465ffffffffffff1665ffffffffffff1665ffffffffffff1681525050905061424161423c8361466f565b612881565b61424a84612881565b614253426146ea565b65ffffffffffff1660408401526001600160681b0390811660208401521690525b50508a518a511461429e576001600160a01b038c16600090815260038e01602052604090208a5190555b613f668c6142ac8c89612c6a565b8c51158b8963ffffffff16565b6040516001600160a01b0380851660248301528316604482015260648101829052612a8b9085906323b872dd60e01b90608401613fa1565b6040805180820190915283546001600160d81b0381168252600160d81b900464ffffffffff166020820152612de1908490612f5a908585612ffd565b6000600382111561438e57816000614346600283614f92565b614351906001614f55565b90505b818110156143875790508060028161436c8187614f92565b6143769190614f55565b6143809190614f92565b9050614354565b5092915050565b811561439c57506001919050565b506000919050565b83516001600160a01b03908116600090815260038301602081815260408084208151808401835290548152828a0151909516845291815291819020815192830190915254815281511580156143f857508051155b8015614405575085604001515b8015614412575085606001515b1561448457855161444d906144278488612c6a565b60016144448a608001518b60a0015161335c90919063ffffffff16565b8863ffffffff16565b602086015161447d906144608388612c6a565b60016144448a608001518b60c00151612ef690919063ffffffff16565b5050612a8b565b8560400151156144be57855160a087015160808801516144be929185916144ac90829061335c565b60e08b01518894939291908b8b614742565b8560600151156144e957602086015160c087015160808801516144e9929184916144ac908290612ef6565b505050505050565b6000614546826040518060400160405280602081526020017f5361666545524332303a206c6f772d6c6576656c2063616c6c206661696c6564815250856001600160a01b031661477a9092919063ffffffff16565b805190915015612de157808060200190518101906145649190614aea565b612de15760405162461bcd60e51b815260206004820152602a60248201527f5361666545524332303a204552433230206f7065726174696f6e20646964206e6044820152691bdd081cdd58d8d9595960b21b6064820152608401610c17565b6000600160d81b82106128d65760405162461bcd60e51b815260206004820152601e60248201527f76616c756520646f6573206e6f742066697420696e20323136206269747300006044820152606401610c17565b60006501000000000082106128d65760405162461bcd60e51b815260206004820152601d60248201527f76616c756520646f6573206e6f742066697420696e20343020626974730000006044820152606401610c17565b600080614698620151806119d1856040015165ffffffffffff164261335c90919063ffffffff16565b905060006146a9620151808361335c565b905061209562015180610d146146d58588602001516001600160681b0316612e8090919063ffffffff16565b8751611aa6906001600160681b031686612e80565b6000660100000000000082106128d65760405162461bcd60e51b815260206004820152601d60248201527f76616c756520646f6573206e6f742066697420696e20343820626974730000006044820152606401610c17565b612ff388888887156147545789614770565b6040805160208082018352600091829052825190810190925281525b8989898989614016565b60606120958484600085856001600160a01b0385163b6147dc5760405162461bcd60e51b815260206004820152601d60248201527f416464726573733a2063616c6c20746f206e6f6e2d636f6e74726163740000006044820152606401610c17565b600080866001600160a01b031685876040516147f89190614d48565b60006040518083038185875af1925050503d8060008114614835576040519150601f19603f3d011682016040523d82523d6000602084013e61483a565b606091505b50915091506134a682828660608315614854575081610acd565b8251156148645782518084602001fd5b8160405162461bcd60e51b8152600401610c179190614e42565b60405180604001604052806002906020820280368337509192915050565b600082601f8301126148ac578081fd5b6040516040810181811067ffffffffffffffff821117156148cf576148cf61507a565b80604052508083856040860111156148e5578384fd5b835b60028110156149065781358352602092830192909101906001016148e7565b509195945050505050565b600082601f830112614921578081fd5b8135602067ffffffffffffffff8083111561493e5761493e61507a565b8260051b604051601f19603f830116810181811084821117156149635761496361507a565b60405284815283810192508684018288018501891015614981578687fd5b8692505b858310156149a3578035845292840192600192909201918401614985565b50979650505050505050565b6000602082840312156149c0578081fd5b8135610acd81615090565b600080604083850312156149dd578081fd5b82356149e881615090565b915060208301356149f881615090565b809150509250929050565b600080600060608486031215614a17578081fd5b8335614a2281615090565b92506020840135614a3281615090565b929592945050506040919091013590565b60008060408385031215614a55578182fd5b8235614a6081615090565b946020939093013593505050565b60008060808385031215614a80578182fd5b614a8a848461489c565b9150614a99846040850161489c565b90509250929050565b600080600060a08486031215614ab6578283fd5b614ac0858561489c565b9250614acf856040860161489c565b91506080840135614adf81615090565b809150509250925092565b600060208284031215614afb578081fd5b81518015158114610acd578182fd5b600080600060608486031215614a17578283fd5b600080600080600060a08688031215614b35578081fd5b8535614b4081615090565b94506020860135614b5081615090565b935060408601359250606086013591506080860135614b6e81615090565b809150509295509295909350565b60008060008060008060c08789031215614b94578384fd5b8635614b9f81615090565b95506020870135614baf81615090565b945060408701359350606087013592506080870135614bcd81615090565b915060a0870135614bdd81615090565b809150509295509295509295565b600060208284031215614bfc578081fd5b5035919050565b600060208284031215614c14578081fd5b5051919050565b60008060408385031215614c2d578182fd5b82359150602083013567ffffffffffffffff811115614c4a578182fd5b614c5685828601614911565b9150509250929050565b600080600060608486031215614c74578081fd5b83359250602084013567ffffffffffffffff811115614c91578182fd5b614c9d86828701614911565b9250506040840135614adf81615090565b60008060008060808587031215614cc3578182fd5b84519350602085015192506040850151614cdc81615090565b6060860151909250614ced81615090565b939692955090935050565b600080600060608486031215614d0c578081fd5b8351925060208401519150604084015190509250925092565b8060005b6002811015612a8b578151845260209384019390910190600101614d29565b60008251614d5a818460208701614fe8565b9190910192915050565b604080825283519082018190526000906020906060840190828701845b82811015614da65781516001600160a01b031684529284019290840190600101614d81565b50505083810382850152845180825285830191830190845b81811015614dda57835183529284019291840191600101614dbe565b5090979650505050505050565b6020808252825182820181905260009190848201906040850190845b81811015614e285783516001600160a01b031683529284019291840191600101614e03565b50909695505050505050565b60408101610aa88284614d25565b6020815260008251806020840152614e61816040850160208701614fe8565b601f01601f19169190910160400192915050565b6020808252818101527f4f776e61626c653a2063616c6c6572206973206e6f7420746865206f776e6572604082015260600190565b6020808252818101527f537761703a205265736375652046756e6473204163636573732044656e696564604082015260600190565b6020808252601f908201527f5265656e7472616e637947756172643a207265656e7472616e742063616c6c00604082015260600190565b82815260608101610acd6020830184614d25565b60006001600160801b03808316818516808303821115614f4c57614f4c615064565b01949350505050565b60008219821115614f6857614f68615064565b500190565b600060ff821660ff84168060ff03821115614f8a57614f8a615064565b019392505050565b600082614fad57634e487b7160e01b81526012600452602481fd5b500490565b6000816000190483118215151615614fcc57614fcc615064565b500290565b600082821015614fe357614fe3615064565b500390565b60005b83811015615003578181015183820152602001614feb565b83811115612a8b5750506000910152565b600181811c9082168061502857607f821691505b60208210811415612c8957634e487b7160e01b600052602260045260246000fd5b600060001982141561505d5761505d615064565b5060010190565b634e487b7160e01b600052601160045260246000fd5b634e487b7160e01b600052604160045260246000fd5b6001600160a01b0381168114610fcf57600080fdfea2646970667358221220ecbb9b635b1eea04620b447eb798dd72600aef154cfc5641551055ba43e90b5864736f6c63430008040033a2646970667358221220a8da87fe6b6170cd20137777a8d0936db47e1a12d781fa271d4c5b023bb9802e64736f6c63430008040033",
  "devdoc": {
    "kind": "dev",
    "methods": {},
    "version": 1
  },
  "userdoc": {
    "kind": "user",
    "methods": {},
    "notice": "Helper contract to deploy pools ",
    "version": 1
  },
  "storageLayout": {
    "storage": [],
    "types": null
  }
}