{
  "address": "0xc6e7DF5E7b4f2A278906862b61205850344D4e7d",
  "abi": [
    {
      "inputs": [
        {
          "internalType": "contract IERC20",
          "name": "fadToken",
          "type": "address"
        },
        {
          "internalType": "contract ISwapFactory",
          "name": "_swapFactory",
          "type": "address"
        }
      ],
      "stateMutability": "nonpayable",
      "type": "constructor"
    },
    {
      "anonymous": false,
      "inputs": [
        {
          "indexed": true,
          "internalType": "address",
          "name": "previousOwner",
          "type": "address"
        },
        {
          "indexed": true,
          "internalType": "address",
          "name": "newOwner",
          "type": "address"
        }
      ],
      "name": "OwnershipTransferred",
      "type": "event"
    },
    {
      "inputs": [
        {
          "internalType": "contract Swap[]",
          "name": "pools",
          "type": "address[]"
        }
      ],
      "name": "claim",
      "outputs": [],
      "stateMutability": "nonpayable",
      "type": "function"
    },
    {
      "inputs": [
        {
          "internalType": "contract Swap",
          "name": "swap",
          "type": "address"
        }
      ],
      "name": "claimCurrentEpoch",
      "outputs": [],
      "stateMutability": "nonpayable",
      "type": "function"
    },
    {
      "inputs": [
        {
          "internalType": "contract Swap",
          "name": "swap",
          "type": "address"
        }
      ],
      "name": "claimFrozenEpoch",
      "outputs": [],
      "stateMutability": "nonpayable",
      "type": "function"
    },
    {
      "inputs": [],
      "name": "fadToken",
      "outputs": [
        {
          "internalType": "contract IERC20",
          "name": "",
          "type": "address"
        }
      ],
      "stateMutability": "view",
      "type": "function"
    },
    {
      "inputs": [
        {
          "internalType": "contract Swap",
          "name": "swap",
          "type": "address"
        }
      ],
      "name": "freezeEpoch",
      "outputs": [],
      "stateMutability": "nonpayable",
      "type": "function"
    },
    {
      "inputs": [],
      "name": "owner",
      "outputs": [
        {
          "internalType": "address",
          "name": "",
          "type": "address"
        }
      ],
      "stateMutability": "view",
      "type": "function"
    },
    {
      "inputs": [
        {
          "internalType": "contract IERC20",
          "name": "",
          "type": "address"
        }
      ],
      "name": "pathWhitlist",
      "outputs": [
        {
          "internalType": "bool",
          "name": "",
          "type": "bool"
        }
      ],
      "stateMutability": "view",
      "type": "function"
    },
    {
      "inputs": [],
      "name": "renounceOwnership",
      "outputs": [],
      "stateMutability": "nonpayable",
      "type": "function"
    },
    {
      "inputs": [],
      "name": "swapFactory",
      "outputs": [
        {
          "internalType": "contract ISwapFactory",
          "name": "",
          "type": "address"
        }
      ],
      "stateMutability": "view",
      "type": "function"
    },
    {
      "inputs": [
        {
          "internalType": "contract IERC20",
          "name": "",
          "type": "address"
        }
      ],
      "name": "tokenInfo",
      "outputs": [
        {
          "internalType": "uint256",
          "name": "firstUnprocessedEpoch",
          "type": "uint256"
        },
        {
          "internalType": "uint256",
          "name": "currentEpoch",
          "type": "uint256"
        }
      ],
      "stateMutability": "view",
      "type": "function"
    },
    {
      "inputs": [
        {
          "internalType": "contract Swap",
          "name": "swap",
          "type": "address"
        },
        {
          "internalType": "contract IERC20[]",
          "name": "path",
          "type": "address[]"
        }
      ],
      "name": "trade",
      "outputs": [],
      "stateMutability": "nonpayable",
      "type": "function"
    },
    {
      "inputs": [
        {
          "internalType": "address",
          "name": "newOwner",
          "type": "address"
        }
      ],
      "name": "transferOwnership",
      "outputs": [],
      "stateMutability": "nonpayable",
      "type": "function"
    },
    {
      "inputs": [
        {
          "internalType": "contract IERC20",
          "name": "token",
          "type": "address"
        },
        {
          "internalType": "bool",
          "name": "status",
          "type": "bool"
        }
      ],
      "name": "updatePathWhitelist",
      "outputs": [],
      "stateMutability": "nonpayable",
      "type": "function"
    },
    {
      "inputs": [
        {
          "internalType": "address",
          "name": "referral",
          "type": "address"
        },
        {
          "internalType": "uint256",
          "name": "amount",
          "type": "uint256"
        }
      ],
      "name": "updateReward",
      "outputs": [],
      "stateMutability": "nonpayable",
      "type": "function"
    },
    {
      "inputs": [
        {
          "internalType": "address[]",
          "name": "receivers",
          "type": "address[]"
        },
        {
          "internalType": "uint256[]",
          "name": "amounts",
          "type": "uint256[]"
        }
      ],
      "name": "updateRewards",
      "outputs": [],
      "stateMutability": "nonpayable",
      "type": "function"
    },
    {
      "inputs": [
        {
          "internalType": "address",
          "name": "",
          "type": "address"
        }
      ],
      "name": "userInfo",
      "outputs": [
        {
          "internalType": "uint256",
          "name": "balance",
          "type": "uint256"
        }
      ],
      "stateMutability": "view",
      "type": "function"
    },
    {
      "stateMutability": "payable",
      "type": "receive"
    }
  ],
  "transactionHash": "0x5df5772bd606885518a8b25a07d3ec8a4f566a73c8774ba598b85b62c99d2012",
  "args": [
    "0x9A9f2CCfdE556A7E9Ff0848998Aa4a0CFD8863AE",
    "0x3Aa5ebB10DC797CAC828524e59A333d0A371443c"
  ],
  "numDeployments": 1,
  "solcInputHash": "5c2e1cb50205ed71a0daeb9fe0a0c667",
  "bytecode": "0x60c06040523480156200001157600080fd5b5060405162003611380380620036118339810160408190526200003491620000b7565b8181620000413362000067565b6001600160601b0319606092831b8116608052911b1660a052505060016002556200010e565b600080546001600160a01b038381166001600160a01b0319831681178455604051919092169283917f8be0079c531659141344cd1fd0a4f28419497f9722a3daafe3b4186f6b6457e09190a35050565b60008060408385031215620000ca578182fd5b8251620000d781620000f5565b6020840151909250620000ea81620000f5565b809150509250929050565b6001600160a01b03811681146200010b57600080fd5b50565b60805160601c60a05160601c61349862000179600039600081816102c00152818161070101528181610a9401528181610ea20152818161113b015281816114b0015281816120c101526123a10152600081816101ff015281816105cc0152610a0c01526134986000f3fe6080604052600436106100f75760003560e01c80637944f9441161008a578063f2fde38b11610059578063f2fde38b14610340578063f3aafa8014610360578063f583adbc14610380578063f5dab711146103a057600080fd5b80637944f944146102ae5780638da5cb5b146102e2578063946e1a62146103005780639e96b2ce1461032057600080fd5b80633e065bbc116100c65780633e065bbc146101ed5780633e5000fe14610239578063715018a61461027957806371646f981461028e57600080fd5b80630931753c1461014d5780631959a0021461016d5780631a399125146101ad578063318d9e5d146101cd57600080fd5b3661014857333214156101465760405162461bcd60e51b81526020600482015260126024820152712a3930b739b332b9103337b93134b23232b760711b60448201526064015b60405180910390fd5b005b600080fd5b34801561015957600080fd5b50610146610168366004612e16565b6103ec565b34801561017957600080fd5b5061019a610188366004612dcf565b60036020526000908152604090205481565b6040519081526020015b60405180910390f35b3480156101b957600080fd5b506101466101c8366004612deb565b610474565b3480156101d957600080fd5b506101466101e8366004612f20565b61051d565b3480156101f957600080fd5b506102217f000000000000000000000000000000000000000000000000000000000000000081565b6040516001600160a01b0390911681526020016101a4565b34801561024557600080fd5b50610269610254366004612dcf565b60016020526000908152604090205460ff1681565b60405190151581526020016101a4565b34801561028557600080fd5b50610146610684565b34801561029a57600080fd5b506101466102a9366004612dcf565b6106ba565b3480156102ba57600080fd5b506102217f000000000000000000000000000000000000000000000000000000000000000081565b3480156102ee57600080fd5b506000546001600160a01b0316610221565b34801561030c57600080fd5b5061014661031b366004612dcf565b610a4d565b34801561032c57600080fd5b5061014661033b366004612dcf565b610e5b565b34801561034c57600080fd5b5061014661035b366004612dcf565b611059565b34801561036c57600080fd5b5061014661037b3660046130a4565b6110f4565b34801561038c57600080fd5b5061014661039b366004613050565b611849565b3480156103ac57600080fd5b506103d76103bb366004612dcf565b6004602052600090815260409020600181015460029091015482565b604080519283526020830191909152016101a4565b60005b8381101561046d5761045b85858381811061041a57634e487b7160e01b600052603260045260246000fd5b905060200201602081019061042f9190612dcf565b84848481811061044f57634e487b7160e01b600052603260045260246000fd5b90506020020135610474565b80610465816133f8565b9150506103ef565b5050505050565b3360008181526004602090815260408083206001600160a01b038716845260038352818420600282015486865260018201855283862081875290945291909320549091906104c2908661189e565b6001600160a01b0385166000908152600184016020908152604080832085845282528083209390935585905220546104fa908661189e565b600082815260208590526040902055610515828486846118b3565b505050505050565b336000908152600360205260408120905b82518110156105b157600083828151811061055957634e487b7160e01b600052603260045260246000fd5b60200260200101519050600060046000836001600160a01b03166001600160a01b03168152602001908152602001600020905061059c84828484600201546118b3565b505080806105a9906133f8565b91505061052e565b508054600181111561067f5760018083556001600160a01b037f0000000000000000000000000000000000000000000000000000000000000000169063a9059cbb9033906105ff90856133b5565b6040516001600160e01b031960e085901b1681526001600160a01b0390921660048301526024820152604401602060405180830381600087803b15801561064557600080fd5b505af1158015610659573d6000803e3d6000fd5b505050506040513d601f19601f8201168201806040525081019061067d9190613034565b505b505050565b6000546001600160a01b031633146106ae5760405162461bcd60e51b815260040161013d9061322a565b6106b86000611a05565b565b6002805414156106dc5760405162461bcd60e51b815260040161013d9061325f565b60028055604051635b16ebb760e01b81526001600160a01b03808316600483015282917f000000000000000000000000000000000000000000000000000000000000000090911690635b16ebb79060240160206040518083038186803b15801561074557600080fd5b505afa158015610759573d6000803e3d6000fd5b505050506040513d601f19601f8201168201806040525081019061077d9190613034565b6107995760405162461bcd60e51b815260040161013d90613296565b3360009081526003602090815260408083206001600160a01b0386168452600490925290912060028101546001808301549082906107d890839061189e565b146108255760405162461bcd60e51b815260206004820152601760248201527f45706f636820416c72656164792046696e616c697a6564000000000000000000604482015260640161013d565b6001600160a01b0386166000908152600285016020526040902054811461088e5760405162461bcd60e51b815260206004820152601c60248201527f45706f63682046756e647320416c72656164656420436c61696d656400000000604482015260640161013d565b6001600160a01b038616600090815260028501602090815260408083208590556001870182528083208484529091529020548015610a3f5760008281526020858152604080832080546001600160a01b038c16855260018a018452828520878652909352908320929092556109038184611a55565b82600001819055506000896001600160a01b031663aa6ca8086040518163ffffffff1660e01b815260040160006040518083038186803b15801561094657600080fd5b505afa15801561095a573d6000803e3d6000fd5b505050506040513d6000823e601f3d908101601f191682016040526109829190810190612e7f565b90506109bc816000815181106109a857634e487b7160e01b600052603260045260246000fd5b602002602001015184600101548685611a61565b83600101819055506109fc816001815181106109e857634e487b7160e01b600052603260045260246000fd5b602002602001015184600201548685611a61565b60028401556003830154610a33907f0000000000000000000000000000000000000000000000000000000000000000908685611a61565b83600301819055505050505b505060016002555050505050565b600280541415610a6f5760405162461bcd60e51b815260040161013d9061325f565b60028055604051635b16ebb760e01b81526001600160a01b03808316600483015282917f000000000000000000000000000000000000000000000000000000000000000090911690635b16ebb79060240160206040518083038186803b158015610ad857600080fd5b505afa158015610aec573d6000803e3d6000fd5b505050506040513d601f19601f82011682018060405250810190610b109190613034565b610b2c5760405162461bcd60e51b815260040161013d90613296565b81610b3681611aa8565b610b525760405162461bcd60e51b815260040161013d906131fe565b6001600160a01b0383166000908152600460205260409020600281015460018201548114610bc25760405162461bcd60e51b815260206004820152601f60248201527f50726576696f75732045706f6368204973204e6f742046696e616c697a656400604482015260640161013d565b6000856001600160a01b031663aa6ca8086040518163ffffffff1660e01b815260040160006040518083038186803b158015610bfd57600080fd5b505afa158015610c11573d6000803e3d6000fd5b505050506040513d6000823e601f3d908101601f19168201604052610c399190810190612e7f565b90506000610c813083600081518110610c6257634e487b7160e01b600052603260045260246000fd5b60200260200101516001600160a01b031661200b90919063ffffffff16565b90506000610caa3084600181518110610c6257634e487b7160e01b600052603260045260246000fd5b6040516370a0823160e01b81523060048201529091506001600160a01b03891690635915d8069082906370a082319060240160206040518083038186803b158015610cf457600080fd5b505afa158015610d08573d6000803e3d6000fd5b505050506040513d601f19601f82011682018060405250810190610d2c9190613197565b604080516000815260208101918290526001600160e01b031960e085901b16909152610d5c9190602481016132bc565b6040805180830381600087803b158015610d7557600080fd5b505af1158015610d89573d6000803e3d6000fd5b505050506040513d601f19601f82011682018060405250810190610dad9190612fb0565b50610ddd82610dd73086600081518110610c6257634e487b7160e01b600052603260045260246000fd5b90611a55565b85600001600086815260200190815260200160002060010181905550610e2281610dd73086600181518110610c6257634e487b7160e01b600052603260045260246000fd5b6000858152602087905260409020600290810191909155850154610e4790600161189e565b600295860155505060019092555050505050565b600280541415610e7d5760405162461bcd60e51b815260040161013d9061325f565b60028055604051635b16ebb760e01b81526001600160a01b03808316600483015282917f000000000000000000000000000000000000000000000000000000000000000090911690635b16ebb79060240160206040518083038186803b158015610ee657600080fd5b505afa158015610efa573d6000803e3d6000fd5b505050506040513d601f19601f82011682018060405250810190610f1e9190613034565b610f3a5760405162461bcd60e51b815260040161013d90613296565b3360009081526003602090815260408083206001600160a01b03861684526004835281842060028101546001830185528386208187529094529190932054909190801561104c576001600160a01b03861660009081526001850160209081526040808320858452825280832083905590859052902054610fba9082611a55565b60008381526020859052604090819020919091555163a9059cbb60e01b8152336004820152602481018290526001600160a01b0387169063a9059cbb90604401602060405180830381600087803b15801561101457600080fd5b505af1158015611028573d6000803e3d6000fd5b505050506040513d601f19601f82011682018060405250810190610a3f9190613034565b5050600160025550505050565b6000546001600160a01b031633146110835760405162461bcd60e51b815260040161013d9061322a565b6001600160a01b0381166110e85760405162461bcd60e51b815260206004820152602660248201527f4f776e61626c653a206e6577206f776e657220697320746865207a65726f206160448201526564647265737360d01b606482015260840161013d565b6110f181611a05565b50565b6002805414156111165760405162461bcd60e51b815260040161013d9061325f565b60028055604051635b16ebb760e01b81526001600160a01b03808416600483015283917f000000000000000000000000000000000000000000000000000000000000000090911690635b16ebb79060240160206040518083038186803b15801561117f57600080fd5b505afa158015611193573d6000803e3d6000fd5b505050506040513d601f19601f820116820180604052508101906111b79190613034565b6111d35760405162461bcd60e51b815260040161013d90613296565b826111dd81611aa8565b6111f95760405162461bcd60e51b815260040161013d906131fe565b6001600160a01b038416600090815260046020908152604080832060018082015480865293829052919093206002840154909161123790849061189e565b146112845760405162461bcd60e51b815260206004820181905260248201527f50726576696f75732045706f636820416c72656164792046696e616c697a6564604482015260640161013d565b6000876001600160a01b031663aa6ca8086040518163ffffffff1660e01b815260040160006040518083038186803b1580156112bf57600080fd5b505afa1580156112d3573d6000803e3d6000fd5b505050506040513d6000823e601f3d908101601f191682016040526112fb9190810190612e7f565b905060008160008151811061132057634e487b7160e01b600052603260045260246000fd5b60200260200101516001600160a01b03168860008151811061135257634e487b7160e01b600052603260045260246000fd5b60200260200101516001600160a01b0316141561137457506001820154611427565b8160018151811061139557634e487b7160e01b600052603260045260246000fd5b60200260200101516001600160a01b0316886000815181106113c757634e487b7160e01b600052603260045260246000fd5b60200260200101516001600160a01b031614156113e957506002820154611427565b60405162461bcd60e51b815260206004820152601360248201527224b73b30b634b2103334b939ba103a37b5b2b760691b604482015260640161013d565b6000806114348a846120ac565b9150915080600014156116e15782156116dc578183146114965760405162461bcd60e51b815260206004820152601d60248201527f417661696c61626c652042616c616e6365204973204e6f742044757374000000604482015260640161013d565b60005b8a516114a682600161335e565b101561161b5760007f00000000000000000000000000000000000000000000000000000000000000006001600160a01b031663901754d78d84815181106114fd57634e487b7160e01b600052603260045260246000fd5b60200260200101518e856001611513919061335e565b8151811061153157634e487b7160e01b600052603260045260246000fd5b60200260200101516040518363ffffffff1660e01b815260040161156b9291906001600160a01b0392831681529116602082015260400190565b60206040518083038186803b15801561158357600080fd5b505afa158015611597573d6000803e3d6000fd5b505050506040513d601f19601f820116820180604052508101906115bb9190613088565b90506115c681611aa8565b6116085760405162461bcd60e51b815260206004820152601360248201527214dc1c99585908125cc8151bdbc8121a59da1d606a1b604482015260640161013d565b5061161460018261335e565b9050611499565b5061165e8a60008151811061164057634e487b7160e01b600052603260045260246000fd5b60200260200101516001600160a01b03166001600160a01b03161590565b1561169657604051329084156108fc029085906000818181858888f19350505050158015611690573d6000803e3d6000fd5b50611707565b6116dc8b848c6000815181106116bc57634e487b7160e01b600052603260045260246000fd5b60200260200101516001600160a01b031661232b9092919063ffffffff16565b611707565b60006116ee8b843061238e565b6003870154909150611700908261189e565b6003870155505b8360008151811061172857634e487b7160e01b600052603260045260246000fd5b60200260200101516001600160a01b03168a60008151811061175a57634e487b7160e01b600052603260045260246000fd5b60200260200101516001600160a01b0316141561178a5760018501546117809083611a55565b6001860155611809565b836001815181106117ab57634e487b7160e01b600052603260045260246000fd5b60200260200101516001600160a01b03168a6000815181106117dd57634e487b7160e01b600052603260045260246000fd5b60200260200101516001600160a01b031614156118095760028501546118039083611a55565b60028601555b600185015415801561181d57506002850154155b15611837576001878101546118319161189e565b60018801555b50506001600255505050505050505050565b6000546001600160a01b031633146118735760405162461bcd60e51b815260040161013d9061322a565b6001600160a01b03919091166000908152600160205260409020805460ff1916911515919091179055565b60006118aa828461335e565b90505b92915050565b6001600160a01b03821660009081526002850160209081526040808320546001880183528184208185529092529091205461190b57506001600160a01b0382166000908152600285016020526040902081905561067d565b600184015481811161191e57505061067d565b6000611934600261192f85856133b5565b61284d565b9050600061194488888887612863565b905060018211156119725761196f61196889898961196389600161335e565b612863565b829061189e565b90505b875461197e908261189e565b88556001600160a01b03861660009081526001808a01602052604082209082906119a990889061335e565b815260200190815260200160002054600014905082600214806119c95750805b6119dd576119d885600161335e565b6119df565b855b6001600160a01b038816600090815260028b016020526040902055505050505050505050565b600080546001600160a01b038381166001600160a01b0319831681178455604051919092169283917f8be0079c531659141344cd1fd0a4f28419497f9722a3daafe3b4186f6b6457e09190a35050565b60006118aa82846133b5565b600080611a7883611a72878761291b565b90612927565b90508015611a9457611a946001600160a01b0387163383612933565b611a9e8582611a55565b9695505050505050565b600080826001600160a01b031663aa6ca8086040518163ffffffff1660e01b815260040160006040518083038186803b158015611ae457600080fd5b505afa158015611af8573d6000803e3d6000fd5b505050506040513d6000823e601f3d908101601f19168201604052611b209190810190612e7f565b9050600080600080611b4d8786600081518110610c6257634e487b7160e01b600052603260045260246000fd5b90506000611b768887600181518110610c6257634e487b7160e01b600052603260045260246000fd5b90506000886001600160a01b031663728c769a6040518163ffffffff1660e01b815260040160206040518083038186803b158015611bb357600080fd5b505afa158015611bc7573d6000803e3d6000fd5b505050506040513d601f19601f82011682018060405250810190611beb9190613197565b6040805180820190915260008082526020820152909150896001600160a01b031663ee5d185989600081518110611c3257634e487b7160e01b600052603260045260246000fd5b60200260200101516040518263ffffffff1660e01b8152600401611c6591906001600160a01b0391909116815260200190565b604080518083038186803b158015611c7c57600080fd5b505afa158015611c90573d6000803e3d6000fd5b505050506040513d601f19601f82011682018060405250810190611cb49190613155565b64ffffffffff1660208301526001600160d81b031681526000611ce1611cdb838588612991565b866129fe565b90508a6001600160a01b031663ee5d18598a600181518110611d1357634e487b7160e01b600052603260045260246000fd5b60200260200101516040518263ffffffff1660e01b8152600401611d4691906001600160a01b0391909116815260200190565b604080518083038186803b158015611d5d57600080fd5b505afa158015611d71573d6000803e3d6000fd5b505050506040513d601f19601f82011682018060405250810190611d959190613155565b64ffffffffff1660208401526001600160d81b031682526000611dbc611cdb848688612991565b90508b6001600160a01b031663ac9d6f958b600081518110611dee57634e487b7160e01b600052603260045260246000fd5b60200260200101516040518263ffffffff1660e01b8152600401611e2191906001600160a01b0391909116815260200190565b604080518083038186803b158015611e3857600080fd5b505afa158015611e4c573d6000803e3d6000fd5b505050506040513d601f19601f82011682018060405250810190611e709190613155565b64ffffffffff1660208501526001600160d81b031683526000611e9d611e9785878a612991565b8861284d565b90508c6001600160a01b031663ac9d6f958c600181518110611ecf57634e487b7160e01b600052603260045260246000fd5b60200260200101516040518263ffffffff1660e01b8152600401611f0291906001600160a01b0391909116815260200190565b604080518083038186803b158015611f1957600080fd5b505afa158015611f2d573d6000803e3d6000fd5b505050506040513d601f19601f82011682018060405250810190611f519190613155565b64ffffffffff1660208601526001600160d81b031684526000611f78611e9786888a612991565b9050611f9082611a72670de0b6b3a76400008661291b565b9a50611fa884611a72670de0b6b3a76400008461291b565b9950611fc088611a72670de0b6b3a76400008a61291b565b98505050505050505050611fe481662386f26fc1000061291b90919063ffffffff16565b612000670de0b6b3a7640000611ffa8686611a55565b9061291b565b109695505050505050565b60006001600160a01b03831661202c57506001600160a01b038116316118ad565b6040516370a0823160e01b81526001600160a01b0383811660048301528416906370a082319060240160206040518083038186803b15801561206d57600080fd5b505afa158015612081573d6000803e3d6000fd5b505050506040513d601f19601f820116820180604052508101906120a59190613197565b90506118ad565b81518190819060005b818110156123225760007f00000000000000000000000000000000000000000000000000000000000000006001600160a01b031663901754d788848151811061210e57634e487b7160e01b600052603260045260246000fd5b602002602001015189856001612124919061335e565b8151811061214257634e487b7160e01b600052603260045260246000fd5b60200260200101516040518363ffffffff1660e01b815260040161217c9291906001600160a01b0392831681529116602082015260400190565b60206040518083038186803b15801561219457600080fd5b505afa1580156121a8573d6000803e3d6000fd5b505050506040513d601f19601f820116820180604052508101906121cc9190613088565b905060006121f96064611a72848b8781518110610c6257634e487b7160e01b600052603260045260246000fd5b9050848110156122175761221185611a72888461291b565b95508094505b816001600160a01b031663c515ee2389858151811061224657634e487b7160e01b600052603260045260246000fd5b60200260200101518a86600161225c919061335e565b8151811061227a57634e487b7160e01b600052603260045260246000fd5b60209081029190910101516040516001600160e01b031960e085901b1681526001600160a01b039283166004820152911660248201526044810188905260640160206040518083038186803b1580156122d257600080fd5b505afa1580156122e6573d6000803e3d6000fd5b505050506040513d601f19601f8201168201806040525081019061230a9190613197565b9450505060018161231b919061335e565b90506120b5565b50509250929050565b6040516001600160a01b03831660248201526044810182905261067f90849063a9059cbb60e01b906064015b60408051601f198184030181529190526020810180516001600160e01b03166001600160e01b031990931692909217909152612a0e565b8251829060005b8181101561278a5760007f00000000000000000000000000000000000000000000000000000000000000006001600160a01b031663901754d78884815181106123ee57634e487b7160e01b600052603260045260246000fd5b602002602001015189856001612404919061335e565b8151811061242257634e487b7160e01b600052603260045260246000fd5b60200260200101516040518363ffffffff1660e01b815260040161245c9291906001600160a01b0392831681529116602082015260400190565b60206040518083038186803b15801561247457600080fd5b505afa158015612488573d6000803e3d6000fd5b505050506040513d601f19601f820116820180604052508101906124ac9190613088565b90506124b781611aa8565b6124d35760405162461bcd60e51b815260040161013d906131fe565b60008490506124fb88848151811061164057634e487b7160e01b600052603260045260246000fd5b6125485761254482868a868151811061252457634e487b7160e01b600052603260045260246000fd5b60200260200101516001600160a01b0316612ae09092919063ffffffff16565b5060005b8361255484600261335e565b101561266557816001600160a01b031663d5bcb9b5828a868151811061258a57634e487b7160e01b600052603260045260246000fd5b60200260200101518b8760016125a0919061335e565b815181106125be57634e487b7160e01b600052603260045260246000fd5b60209081029190910101516040516001600160e01b031960e086901b1681526001600160a01b0392831660048201529116602482015260448101899052600060648201819052608482015260a4016020604051808303818588803b15801561262557600080fd5b505af1158015612639573d6000803e3d6000fd5b50505050506040513d601f19601f8201168201806040525081019061265e9190613197565b9450612775565b816001600160a01b031663e331d039828a868151811061269557634e487b7160e01b600052603260045260246000fd5b60200260200101518b8760016126ab919061335e565b815181106126c957634e487b7160e01b600052603260045260246000fd5b60209081029190910101516040516001600160e01b031960e086901b1681526001600160a01b0392831660048201529082166024820152604481018a90526000606482018190526084820152908a1660a482015260c4016020604051808303818588803b15801561273957600080fd5b505af115801561274d573d6000803e3d6000fd5b50505050506040513d601f19601f820116820180604052508101906127729190613197565b94505b50612783905060018261335e565b9050612395565b50806001141561284557846000815181106127b557634e487b7160e01b600052603260045260246000fd5b602090810291909101015160405163a9059cbb60e01b81526001600160a01b038581166004830152602482018590529091169063a9059cbb90604401602060405180830381600087803b15801561280b57600080fd5b505af115801561281f573d6000803e3d6000fd5b505050506040513d601f19601f820116820180604052508101906128439190613034565b505b509392505050565b600081831061285c57816118aa565b5090919050565b6001600160a01b038216600090815260018501602090815260408083208484529091528120548015612912576000838152602086905260409020600381015490546128b281611a72848661291b565b6001600160a01b038716600090815260018a016020908152604080832089845290915281205593506128e48184611a55565b6000868152602089905260409020556128fd8285611a55565b60008681526020899052604090206003015550505b50949350505050565b60006118aa8284613396565b60006118aa8284613376565b801561067f576001600160a01b03831661297d576040516001600160a01b0383169082156108fc029083906000818181858888f1935050505015801561067d573d6000803e3d6000fd5b61067f6001600160a01b038416838361232b565b6000806129b68461192f876020015164ffffffffff1642611a5590919063ffffffff16565b905060006129c48583611a55565b90506129f285611a726129d7878661291b565b89516129ec906001600160d81b03168661291b565b9061189e565b925050505b9392505050565b60008183101561285c57816118aa565b6000612a63826040518060400160405280602081526020017f5361666545524332303a206c6f772d6c6576656c2063616c6c206661696c6564815250856001600160a01b0316612c049092919063ffffffff16565b80519091501561067f5780806020019051810190612a819190613034565b61067f5760405162461bcd60e51b815260206004820152602a60248201527f5361666545524332303a204552433230206f7065726174696f6e20646964206e6044820152691bdd081cdd58d8d9595960b21b606482015260840161013d565b801580612b695750604051636eb1769f60e11b81523060048201526001600160a01b03838116602483015284169063dd62ed3e9060440160206040518083038186803b158015612b2f57600080fd5b505afa158015612b43573d6000803e3d6000fd5b505050506040513d601f19601f82011682018060405250810190612b679190613197565b155b612bd45760405162461bcd60e51b815260206004820152603660248201527f5361666545524332303a20617070726f76652066726f6d206e6f6e2d7a65726f60448201527520746f206e6f6e2d7a65726f20616c6c6f77616e636560501b606482015260840161013d565b6040516001600160a01b03831660248201526044810182905261067f90849063095ea7b360e01b90606401612357565b6060612c138484600085612c1b565b949350505050565b606082471015612c7c5760405162461bcd60e51b815260206004820152602660248201527f416464726573733a20696e73756666696369656e742062616c616e636520666f6044820152651c8818d85b1b60d21b606482015260840161013d565b6001600160a01b0385163b612cd35760405162461bcd60e51b815260206004820152601d60248201527f416464726573733a2063616c6c20746f206e6f6e2d636f6e7472616374000000604482015260640161013d565b600080866001600160a01b03168587604051612cef91906131af565b60006040518083038185875af1925050503d8060008114612d2c576040519150601f19603f3d011682016040523d82523d6000602084013e612d31565b606091505b5091509150612d41828286612d4c565b979650505050505050565b60608315612d5b5750816129f7565b825115612d6b5782518084602001fd5b8160405162461bcd60e51b815260040161013d91906131cb565b60008083601f840112612d96578182fd5b50813567ffffffffffffffff811115612dad578182fd5b6020830191508360208260051b8501011115612dc857600080fd5b9250929050565b600060208284031215612de0578081fd5b81356129f78161343f565b60008060408385031215612dfd578081fd5b8235612e088161343f565b946020939093013593505050565b60008060008060408587031215612e2b578182fd5b843567ffffffffffffffff80821115612e42578384fd5b612e4e88838901612d85565b90965094506020870135915080821115612e66578384fd5b50612e7387828801612d85565b95989497509550505050565b60006020808385031215612e91578182fd5b825167ffffffffffffffff811115612ea7578283fd5b8301601f81018513612eb7578283fd5b8051612eca612ec58261333a565b613309565b80828252848201915084840188868560051b8701011115612ee9578687fd5b8694505b83851015612f14578051612f008161343f565b835260019490940193918501918501612eed565b50979650505050505050565b60006020808385031215612f32578182fd5b823567ffffffffffffffff811115612f48578283fd5b8301601f81018513612f58578283fd5b8035612f66612ec58261333a565b80828252848201915084840188868560051b8701011115612f85578687fd5b8694505b83851015612f14578035612f9c8161343f565b835260019490940193918501918501612f89565b600060408284031215612fc1578081fd5b82601f830112612fcf578081fd5b6040516040810181811067ffffffffffffffff82111715612ff257612ff2613429565b8060405250808385604086011115613008578384fd5b835b600281101561302957815183526020928301929091019060010161300a565b509195945050505050565b600060208284031215613045578081fd5b81516129f781613454565b60008060408385031215613062578182fd5b823561306d8161343f565b9150602083013561307d81613454565b809150509250929050565b600060208284031215613099578081fd5b81516129f78161343f565b600080604083850312156130b6578182fd5b82356130c18161343f565b915060208381013567ffffffffffffffff8111156130dd578283fd5b8401601f810186136130ed578283fd5b80356130fb612ec58261333a565b80828252848201915084840189868560051b870101111561311a578687fd5b8694505b838510156131455780356131318161343f565b83526001949094019391850191850161311e565b5080955050505050509250929050565b60008060408385031215613167578182fd5b82516001600160d81b038116811461317d578283fd5b602084015190925064ffffffffff8116811461307d578182fd5b6000602082840312156131a8578081fd5b5051919050565b600082516131c18184602087016133cc565b9190910192915050565b60208152600082518060208401526131ea8160408501602087016133cc565b601f01601f19169190910160400192915050565b6020808252601290820152710a6e0e4cac2c84092e640a8dede4090d2ced60731b604082015260600190565b6020808252818101527f4f776e61626c653a2063616c6c6572206973206e6f7420746865206f776e6572604082015260600190565b6020808252601f908201527f5265656e7472616e637947756172643a207265656e7472616e742063616c6c00604082015260600190565b6020808252600c908201526b125b9d985b1a59081c1bdbdb60a21b604082015260600190565b60006040820184835260206040818501528185518084526060860191508287019350845b818110156132fc578451835293830193918301916001016132e0565b5090979650505050505050565b604051601f8201601f1916810167ffffffffffffffff8111828210171561333257613332613429565b604052919050565b600067ffffffffffffffff82111561335457613354613429565b5060051b60200190565b6000821982111561337157613371613413565b500190565b60008261339157634e487b7160e01b81526012600452602481fd5b500490565b60008160001904831182151516156133b0576133b0613413565b500290565b6000828210156133c7576133c7613413565b500390565b60005b838110156133e75781810151838201526020016133cf565b8381111561067d5750506000910152565b600060001982141561340c5761340c613413565b5060010190565b634e487b7160e01b600052601160045260246000fd5b634e487b7160e01b600052604160045260246000fd5b6001600160a01b03811681146110f157600080fd5b80151581146110f157600080fdfea264697066735822122011a69e06d1fa102f713011b9e67d4d35010fa542fd35613eba1cd9b032b13d0564736f6c63430008040033",
  "devdoc": {
    "kind": "dev",
    "methods": {
      "owner()": {
        "details": "Returns the address of the current owner."
      },
      "renounceOwnership()": {
        "details": "Leaves the contract without owner. It will not be possible to call `onlyOwner` functions anymore. Can only be called by the current owner. NOTE: Renouncing ownership will leave the contract without an owner, thereby removing any functionality that is only available to the owner."
      },
      "transferOwnership(address)": {
        "details": "Transfers ownership of the contract to a new account (`newOwner`). Can only be called by the current owner."
      }
    },
    "version": 1
  },
  "userdoc": {
    "kind": "user",
    "methods": {
      "claim(address[])": {
        "notice": "Collects `msg.sender`'s tokens from pools and transfers them to him "
      },
      "claimCurrentEpoch(address)": {
        "notice": "Collects current epoch `msg.sender`'s tokens from pool and transfers them to him "
      },
      "claimFrozenEpoch(address)": {
        "notice": "Collects frozen epoch `msg.sender`'s tokens from pool and transfers them to him "
      },
      "freezeEpoch(address)": {
        "notice": "Freezes current epoch and creates new as an active one "
      },
      "trade(address,address[])": {
        "notice": "Perform chain swap described by `path`. First element of `path` should match either token of the `Swap`. The last token in chain should always be `FAD` "
      },
      "updateReward(address,uint256)": {
        "notice": "Adds specified `amount` as reward to `receiver` "
      }
    },
    "version": 1
  },
  "storageLayout": {
    "storage": [
      {
        "astId": 7,
        "contract": "contracts/ReferralFeeReceiver.sol:ReferralFeeReceiver",
        "label": "_owner",
        "offset": 0,
        "slot": "0",
        "type": "t_address"
      },
      {
        "astId": 9160,
        "contract": "contracts/ReferralFeeReceiver.sol:ReferralFeeReceiver",
        "label": "pathWhitlist",
        "offset": 0,
        "slot": "1",
        "type": "t_mapping(t_contract(IERC20)902,t_bool)"
      },
      {
        "astId": 207,
        "contract": "contracts/ReferralFeeReceiver.sol:ReferralFeeReceiver",
        "label": "_status",
        "offset": 0,
        "slot": "2",
        "type": "t_uint256"
      },
      {
        "astId": 1978,
        "contract": "contracts/ReferralFeeReceiver.sol:ReferralFeeReceiver",
        "label": "userInfo",
        "offset": 0,
        "slot": "3",
        "type": "t_mapping(t_address,t_struct(UserInfo)1954_storage)"
      },
      {
        "astId": 1984,
        "contract": "contracts/ReferralFeeReceiver.sol:ReferralFeeReceiver",
        "label": "tokenInfo",
        "offset": 0,
        "slot": "4",
        "type": "t_mapping(t_contract(IERC20)902,t_struct(TokenInfo)1973_storage)"
      }
    ],
    "types": {
      "t_address": {
        "encoding": "inplace",
        "label": "address",
        "numberOfBytes": "20"
      },
      "t_bool": {
        "encoding": "inplace",
        "label": "bool",
        "numberOfBytes": "1"
      },
      "t_contract(IERC20)902": {
        "encoding": "inplace",
        "label": "contract IERC20",
        "numberOfBytes": "20"
      },
      "t_mapping(t_address,t_struct(UserInfo)1954_storage)": {
        "encoding": "mapping",
        "key": "t_address",
        "label": "mapping(address => struct ReferralFeeReceiver.UserInfo)",
        "numberOfBytes": "32",
        "value": "t_struct(UserInfo)1954_storage"
      },
      "t_mapping(t_contract(IERC20)902,t_bool)": {
        "encoding": "mapping",
        "key": "t_contract(IERC20)902",
        "label": "mapping(contract IERC20 => bool)",
        "numberOfBytes": "32",
        "value": "t_bool"
      },
      "t_mapping(t_contract(IERC20)902,t_mapping(t_uint256,t_uint256))": {
        "encoding": "mapping",
        "key": "t_contract(IERC20)902",
        "label": "mapping(contract IERC20 => mapping(uint256 => uint256))",
        "numberOfBytes": "32",
        "value": "t_mapping(t_uint256,t_uint256)"
      },
      "t_mapping(t_contract(IERC20)902,t_struct(TokenInfo)1973_storage)": {
        "encoding": "mapping",
        "key": "t_contract(IERC20)902",
        "label": "mapping(contract IERC20 => struct ReferralFeeReceiver.TokenInfo)",
        "numberOfBytes": "32",
        "value": "t_struct(TokenInfo)1973_storage"
      },
      "t_mapping(t_contract(IERC20)902,t_uint256)": {
        "encoding": "mapping",
        "key": "t_contract(IERC20)902",
        "label": "mapping(contract IERC20 => uint256)",
        "numberOfBytes": "32",
        "value": "t_uint256"
      },
      "t_mapping(t_uint256,t_struct(EpochBalance)1963_storage)": {
        "encoding": "mapping",
        "key": "t_uint256",
        "label": "mapping(uint256 => struct ReferralFeeReceiver.EpochBalance)",
        "numberOfBytes": "32",
        "value": "t_struct(EpochBalance)1963_storage"
      },
      "t_mapping(t_uint256,t_uint256)": {
        "encoding": "mapping",
        "key": "t_uint256",
        "label": "mapping(uint256 => uint256)",
        "numberOfBytes": "32",
        "value": "t_uint256"
      },
      "t_struct(EpochBalance)1963_storage": {
        "encoding": "inplace",
        "label": "struct ReferralFeeReceiver.EpochBalance",
        "members": [
          {
            "astId": 1956,
            "contract": "contracts/ReferralFeeReceiver.sol:ReferralFeeReceiver",
            "label": "totalSupply",
            "offset": 0,
            "slot": "0",
            "type": "t_uint256"
          },
          {
            "astId": 1958,
            "contract": "contracts/ReferralFeeReceiver.sol:ReferralFeeReceiver",
            "label": "token0Balance",
            "offset": 0,
            "slot": "1",
            "type": "t_uint256"
          },
          {
            "astId": 1960,
            "contract": "contracts/ReferralFeeReceiver.sol:ReferralFeeReceiver",
            "label": "token1Balance",
            "offset": 0,
            "slot": "2",
            "type": "t_uint256"
          },
          {
            "astId": 1962,
            "contract": "contracts/ReferralFeeReceiver.sol:ReferralFeeReceiver",
            "label": "fadBalance",
            "offset": 0,
            "slot": "3",
            "type": "t_uint256"
          }
        ],
        "numberOfBytes": "128"
      },
      "t_struct(TokenInfo)1973_storage": {
        "encoding": "inplace",
        "label": "struct ReferralFeeReceiver.TokenInfo",
        "members": [
          {
            "astId": 1968,
            "contract": "contracts/ReferralFeeReceiver.sol:ReferralFeeReceiver",
            "label": "epochBalance",
            "offset": 0,
            "slot": "0",
            "type": "t_mapping(t_uint256,t_struct(EpochBalance)1963_storage)"
          },
          {
            "astId": 1970,
            "contract": "contracts/ReferralFeeReceiver.sol:ReferralFeeReceiver",
            "label": "firstUnprocessedEpoch",
            "offset": 0,
            "slot": "1",
            "type": "t_uint256"
          },
          {
            "astId": 1972,
            "contract": "contracts/ReferralFeeReceiver.sol:ReferralFeeReceiver",
            "label": "currentEpoch",
            "offset": 0,
            "slot": "2",
            "type": "t_uint256"
          }
        ],
        "numberOfBytes": "96"
      },
      "t_struct(UserInfo)1954_storage": {
        "encoding": "inplace",
        "label": "struct ReferralFeeReceiver.UserInfo",
        "members": [
          {
            "astId": 1941,
            "contract": "contracts/ReferralFeeReceiver.sol:ReferralFeeReceiver",
            "label": "balance",
            "offset": 0,
            "slot": "0",
            "type": "t_uint256"
          },
          {
            "astId": 1948,
            "contract": "contracts/ReferralFeeReceiver.sol:ReferralFeeReceiver",
            "label": "share",
            "offset": 0,
            "slot": "1",
            "type": "t_mapping(t_contract(IERC20)902,t_mapping(t_uint256,t_uint256))"
          },
          {
            "astId": 1953,
            "contract": "contracts/ReferralFeeReceiver.sol:ReferralFeeReceiver",
            "label": "firstUnprocessedEpoch",
            "offset": 0,
            "slot": "2",
            "type": "t_mapping(t_contract(IERC20)902,t_uint256)"
          }
        ],
        "numberOfBytes": "96"
      },
      "t_uint256": {
        "encoding": "inplace",
        "label": "uint256",
        "numberOfBytes": "32"
      }
    }
  }
}