{
  "address": "0x3Aa5ebB10DC797CAC828524e59A333d0A371443c",
  "abi": [
    {
      "inputs": [
        {
          "internalType": "address",
          "name": "_poolOwner",
          "type": "address"
        },
        {
          "internalType": "contract IPoolCreator",
          "name": "_poolCreator",
          "type": "address"
        },
        {
          "internalType": "address",
          "name": "_governanceMothership",
          "type": "address"
        }
      ],
      "stateMutability": "nonpayable",
      "type": "constructor"
    },
    {
      "anonymous": false,
      "inputs": [
        {
          "indexed": true,
          "internalType": "address",
          "name": "user",
          "type": "address"
        },
        {
          "indexed": false,
          "internalType": "uint256",
          "name": "decayPeriod",
          "type": "uint256"
        },
        {
          "indexed": false,
          "internalType": "bool",
          "name": "isDefault",
          "type": "bool"
        },
        {
          "indexed": false,
          "internalType": "uint256",
          "name": "amount",
          "type": "uint256"
        }
      ],
      "name": "DefaultDecayPeriodVoteUpdate",
      "type": "event"
    },
    {
      "anonymous": false,
      "inputs": [
        {
          "indexed": true,
          "internalType": "address",
          "name": "user",
          "type": "address"
        },
        {
          "indexed": false,
          "internalType": "uint256",
          "name": "fee",
          "type": "uint256"
        },
        {
          "indexed": false,
          "internalType": "bool",
          "name": "isDefault",
          "type": "bool"
        },
        {
          "indexed": false,
          "internalType": "uint256",
          "name": "amount",
          "type": "uint256"
        }
      ],
      "name": "DefaultFeeVoteUpdate",
      "type": "event"
    },
    {
      "anonymous": false,
      "inputs": [
        {
          "indexed": true,
          "internalType": "address",
          "name": "user",
          "type": "address"
        },
        {
          "indexed": false,
          "internalType": "uint256",
          "name": "slippageFee",
          "type": "uint256"
        },
        {
          "indexed": false,
          "internalType": "bool",
          "name": "isDefault",
          "type": "bool"
        },
        {
          "indexed": false,
          "internalType": "uint256",
          "name": "amount",
          "type": "uint256"
        }
      ],
      "name": "DefaultSlippageFeeVoteUpdate",
      "type": "event"
    },
    {
      "anonymous": false,
      "inputs": [
        {
          "indexed": true,
          "internalType": "contract Swap",
          "name": "swap",
          "type": "address"
        },
        {
          "indexed": true,
          "internalType": "contract IERC20",
          "name": "token1",
          "type": "address"
        },
        {
          "indexed": true,
          "internalType": "contract IERC20",
          "name": "token2",
          "type": "address"
        }
      ],
      "name": "Deployed",
      "type": "event"
    },
    {
      "anonymous": false,
      "inputs": [
        {
          "indexed": false,
          "internalType": "address",
          "name": "feeCollector",
          "type": "address"
        }
      ],
      "name": "FeeCollectorUpdate",
      "type": "event"
    },
    {
      "anonymous": false,
      "inputs": [
        {
          "indexed": true,
          "internalType": "address",
          "name": "user",
          "type": "address"
        },
        {
          "indexed": false,
          "internalType": "uint256",
          "name": "governanceShare",
          "type": "uint256"
        },
        {
          "indexed": false,
          "internalType": "bool",
          "name": "isDefault",
          "type": "bool"
        },
        {
          "indexed": false,
          "internalType": "uint256",
          "name": "amount",
          "type": "uint256"
        }
      ],
      "name": "GovernanceShareVoteUpdate",
      "type": "event"
    },
    {
      "anonymous": false,
      "inputs": [
        {
          "indexed": false,
          "internalType": "address",
          "name": "governanceWallet",
          "type": "address"
        }
      ],
      "name": "GovernanceWalletUpdate",
      "type": "event"
    },
    {
      "anonymous": false,
      "inputs": [
        {
          "indexed": true,
          "internalType": "address",
          "name": "previousOwner",
          "type": "address"
        },
        {
          "indexed": true,
          "internalType": "address",
          "name": "newOwner",
          "type": "address"
        }
      ],
      "name": "OwnershipTransferred",
      "type": "event"
    },
    {
      "anonymous": false,
      "inputs": [
        {
          "indexed": false,
          "internalType": "address",
          "name": "account",
          "type": "address"
        }
      ],
      "name": "Paused",
      "type": "event"
    },
    {
      "anonymous": false,
      "inputs": [
        {
          "indexed": true,
          "internalType": "address",
          "name": "user",
          "type": "address"
        },
        {
          "indexed": false,
          "internalType": "uint256",
          "name": "referralShare",
          "type": "uint256"
        },
        {
          "indexed": false,
          "internalType": "bool",
          "name": "isDefault",
          "type": "bool"
        },
        {
          "indexed": false,
          "internalType": "uint256",
          "name": "amount",
          "type": "uint256"
        }
      ],
      "name": "ReferralShareVoteUpdate",
      "type": "event"
    },
    {
      "anonymous": false,
      "inputs": [
        {
          "indexed": false,
          "internalType": "address",
          "name": "account",
          "type": "address"
        }
      ],
      "name": "Unpaused",
      "type": "event"
    },
    {
      "inputs": [
        {
          "internalType": "uint256",
          "name": "",
          "type": "uint256"
        }
      ],
      "name": "allPools",
      "outputs": [
        {
          "internalType": "contract Swap",
          "name": "",
          "type": "address"
        }
      ],
      "stateMutability": "view",
      "type": "function"
    },
    {
      "inputs": [
        {
          "internalType": "address",
          "name": "account",
          "type": "address"
        }
      ],
      "name": "balanceOf",
      "outputs": [
        {
          "internalType": "uint256",
          "name": "",
          "type": "uint256"
        }
      ],
      "stateMutability": "view",
      "type": "function"
    },
    {
      "inputs": [
        {
          "internalType": "uint256",
          "name": "vote",
          "type": "uint256"
        }
      ],
      "name": "defaultVoteDecayPeriod",
      "outputs": [],
      "stateMutability": "nonpayable",
      "type": "function"
    },
    {
      "inputs": [
        {
          "internalType": "uint256",
          "name": "vote",
          "type": "uint256"
        }
      ],
      "name": "defaultVoteFee",
      "outputs": [],
      "stateMutability": "nonpayable",
      "type": "function"
    },
    {
      "inputs": [
        {
          "internalType": "uint256",
          "name": "vote",
          "type": "uint256"
        }
      ],
      "name": "defaultVoteSlippageFee",
      "outputs": [],
      "stateMutability": "nonpayable",
      "type": "function"
    },
    {
      "inputs": [],
      "name": "defaults",
      "outputs": [
        {
          "internalType": "uint256",
          "name": "",
          "type": "uint256"
        },
        {
          "internalType": "uint256",
          "name": "",
          "type": "uint256"
        },
        {
          "internalType": "uint256",
          "name": "",
          "type": "uint256"
        }
      ],
      "stateMutability": "view",
      "type": "function"
    },
    {
      "inputs": [
        {
          "internalType": "contract IERC20",
          "name": "tokenA",
          "type": "address"
        },
        {
          "internalType": "contract IERC20",
          "name": "tokenB",
          "type": "address"
        }
      ],
      "name": "deploy",
      "outputs": [
        {
          "internalType": "contract Swap",
          "name": "pool",
          "type": "address"
        }
      ],
      "stateMutability": "nonpayable",
      "type": "function"
    },
    {
      "inputs": [],
      "name": "discardDefaultDecayPeriodVote",
      "outputs": [],
      "stateMutability": "nonpayable",
      "type": "function"
    },
    {
      "inputs": [],
      "name": "discardDefaultFeeVote",
      "outputs": [],
      "stateMutability": "nonpayable",
      "type": "function"
    },
    {
      "inputs": [],
      "name": "discardDefaultSlippageFeeVote",
      "outputs": [],
      "stateMutability": "nonpayable",
      "type": "function"
    },
    {
      "inputs": [],
      "name": "discardGovernanceShareVote",
      "outputs": [],
      "stateMutability": "nonpayable",
      "type": "function"
    },
    {
      "inputs": [],
      "name": "discardReferralShareVote",
      "outputs": [],
      "stateMutability": "nonpayable",
      "type": "function"
    },
    {
      "inputs": [],
      "name": "feeCollector",
      "outputs": [
        {
          "internalType": "address",
          "name": "",
          "type": "address"
        }
      ],
      "stateMutability": "view",
      "type": "function"
    },
    {
      "inputs": [],
      "name": "getAllPools",
      "outputs": [
        {
          "internalType": "contract Swap[]",
          "name": "",
          "type": "address[]"
        }
      ],
      "stateMutability": "view",
      "type": "function"
    },
    {
      "inputs": [],
      "name": "getDefaultDecayPeriod",
      "outputs": [
        {
          "internalType": "uint256",
          "name": "",
          "type": "uint256"
        }
      ],
      "stateMutability": "view",
      "type": "function"
    },
    {
      "inputs": [
        {
          "internalType": "address",
          "name": "user",
          "type": "address"
        }
      ],
      "name": "getDefaultDecayPeriodVotes",
      "outputs": [
        {
          "internalType": "uint256",
          "name": "",
          "type": "uint256"
        }
      ],
      "stateMutability": "view",
      "type": "function"
    },
    {
      "inputs": [],
      "name": "getDefaultFee",
      "outputs": [
        {
          "internalType": "uint256",
          "name": "",
          "type": "uint256"
        }
      ],
      "stateMutability": "view",
      "type": "function"
    },
    {
      "inputs": [
        {
          "internalType": "address",
          "name": "user",
          "type": "address"
        }
      ],
      "name": "getDefaultFeeVotes",
      "outputs": [
        {
          "internalType": "uint256",
          "name": "",
          "type": "uint256"
        }
      ],
      "stateMutability": "view",
      "type": "function"
    },
    {
      "inputs": [],
      "name": "getDefaultSlippageFee",
      "outputs": [
        {
          "internalType": "uint256",
          "name": "",
          "type": "uint256"
        }
      ],
      "stateMutability": "view",
      "type": "function"
    },
    {
      "inputs": [
        {
          "internalType": "address",
          "name": "user",
          "type": "address"
        }
      ],
      "name": "getDefaultSlippageFeeVotes",
      "outputs": [
        {
          "internalType": "uint256",
          "name": "",
          "type": "uint256"
        }
      ],
      "stateMutability": "view",
      "type": "function"
    },
    {
      "inputs": [],
      "name": "getGovernanceShare",
      "outputs": [
        {
          "internalType": "uint256",
          "name": "",
          "type": "uint256"
        }
      ],
      "stateMutability": "view",
      "type": "function"
    },
    {
      "inputs": [
        {
          "internalType": "address",
          "name": "user",
          "type": "address"
        }
      ],
      "name": "getGovernanceShareVotes",
      "outputs": [
        {
          "internalType": "uint256",
          "name": "",
          "type": "uint256"
        }
      ],
      "stateMutability": "view",
      "type": "function"
    },
    {
      "inputs": [],
      "name": "getReferralShare",
      "outputs": [
        {
          "internalType": "uint256",
          "name": "",
          "type": "uint256"
        }
      ],
      "stateMutability": "view",
      "type": "function"
    },
    {
      "inputs": [
        {
          "internalType": "address",
          "name": "user",
          "type": "address"
        }
      ],
      "name": "getReferralShareVotes",
      "outputs": [
        {
          "internalType": "uint256",
          "name": "",
          "type": "uint256"
        }
      ],
      "stateMutability": "view",
      "type": "function"
    },
    {
      "inputs": [],
      "name": "getShareParameters",
      "outputs": [
        {
          "internalType": "uint256",
          "name": "",
          "type": "uint256"
        },
        {
          "internalType": "uint256",
          "name": "",
          "type": "uint256"
        },
        {
          "internalType": "address",
          "name": "",
          "type": "address"
        },
        {
          "internalType": "address",
          "name": "",
          "type": "address"
        }
      ],
      "stateMutability": "view",
      "type": "function"
    },
    {
      "inputs": [],
      "name": "getVirtualDefaultDecayPeriod",
      "outputs": [
        {
          "internalType": "uint104",
          "name": "",
          "type": "uint104"
        },
        {
          "internalType": "uint104",
          "name": "",
          "type": "uint104"
        },
        {
          "internalType": "uint48",
          "name": "",
          "type": "uint48"
        }
      ],
      "stateMutability": "view",
      "type": "function"
    },
    {
      "inputs": [],
      "name": "getVirtualDefaultFee",
      "outputs": [
        {
          "internalType": "uint104",
          "name": "",
          "type": "uint104"
        },
        {
          "internalType": "uint104",
          "name": "",
          "type": "uint104"
        },
        {
          "internalType": "uint48",
          "name": "",
          "type": "uint48"
        }
      ],
      "stateMutability": "view",
      "type": "function"
    },
    {
      "inputs": [],
      "name": "getVirtualDefaultSlippageFee",
      "outputs": [
        {
          "internalType": "uint104",
          "name": "",
          "type": "uint104"
        },
        {
          "internalType": "uint104",
          "name": "",
          "type": "uint104"
        },
        {
          "internalType": "uint48",
          "name": "",
          "type": "uint48"
        }
      ],
      "stateMutability": "view",
      "type": "function"
    },
    {
      "inputs": [],
      "name": "getVirtualGovernanceShare",
      "outputs": [
        {
          "internalType": "uint104",
          "name": "",
          "type": "uint104"
        },
        {
          "internalType": "uint104",
          "name": "",
          "type": "uint104"
        },
        {
          "internalType": "uint48",
          "name": "",
          "type": "uint48"
        }
      ],
      "stateMutability": "view",
      "type": "function"
    },
    {
      "inputs": [],
      "name": "getVirtualReferralShare",
      "outputs": [
        {
          "internalType": "uint104",
          "name": "",
          "type": "uint104"
        },
        {
          "internalType": "uint104",
          "name": "",
          "type": "uint104"
        },
        {
          "internalType": "uint48",
          "name": "",
          "type": "uint48"
        }
      ],
      "stateMutability": "view",
      "type": "function"
    },
    {
      "inputs": [],
      "name": "governanceWallet",
      "outputs": [
        {
          "internalType": "address",
          "name": "",
          "type": "address"
        }
      ],
      "stateMutability": "view",
      "type": "function"
    },
    {
      "inputs": [],
      "name": "isActive",
      "outputs": [
        {
          "internalType": "bool",
          "name": "",
          "type": "bool"
        }
      ],
      "stateMutability": "view",
      "type": "function"
    },
    {
      "inputs": [
        {
          "internalType": "address",
          "name": "",
          "type": "address"
        }
      ],
      "name": "isFeeCollector",
      "outputs": [
        {
          "internalType": "bool",
          "name": "",
          "type": "bool"
        }
      ],
      "stateMutability": "view",
      "type": "function"
    },
    {
      "inputs": [
        {
          "internalType": "contract Swap",
          "name": "",
          "type": "address"
        }
      ],
      "name": "isPool",
      "outputs": [
        {
          "internalType": "bool",
          "name": "",
          "type": "bool"
        }
      ],
      "stateMutability": "view",
      "type": "function"
    },
    {
      "inputs": [],
      "name": "mothership",
      "outputs": [
        {
          "internalType": "address",
          "name": "",
          "type": "address"
        }
      ],
      "stateMutability": "view",
      "type": "function"
    },
    {
      "inputs": [],
      "name": "owner",
      "outputs": [
        {
          "internalType": "address",
          "name": "",
          "type": "address"
        }
      ],
      "stateMutability": "view",
      "type": "function"
    },
    {
      "inputs": [],
      "name": "paused",
      "outputs": [
        {
          "internalType": "bool",
          "name": "",
          "type": "bool"
        }
      ],
      "stateMutability": "view",
      "type": "function"
    },
    {
      "inputs": [],
      "name": "poolCreator",
      "outputs": [
        {
          "internalType": "contract IPoolCreator",
          "name": "",
          "type": "address"
        }
      ],
      "stateMutability": "view",
      "type": "function"
    },
    {
      "inputs": [],
      "name": "poolOwner",
      "outputs": [
        {
          "internalType": "address",
          "name": "",
          "type": "address"
        }
      ],
      "stateMutability": "view",
      "type": "function"
    },
    {
      "inputs": [
        {
          "internalType": "contract IERC20",
          "name": "tokenA",
          "type": "address"
        },
        {
          "internalType": "contract IERC20",
          "name": "tokenB",
          "type": "address"
        }
      ],
      "name": "pools",
      "outputs": [
        {
          "internalType": "contract Swap",
          "name": "pool",
          "type": "address"
        }
      ],
      "stateMutability": "view",
      "type": "function"
    },
    {
      "inputs": [],
      "name": "renounceOwnership",
      "outputs": [],
      "stateMutability": "nonpayable",
      "type": "function"
    },
    {
      "inputs": [
        {
          "internalType": "address",
          "name": "_feeCollector",
          "type": "address"
        }
      ],
      "name": "setFeeCollector",
      "outputs": [],
      "stateMutability": "nonpayable",
      "type": "function"
    },
    {
      "inputs": [
        {
          "internalType": "address",
          "name": "_governanceWallet",
          "type": "address"
        }
      ],
      "name": "setGovernanceWallet",
      "outputs": [],
      "stateMutability": "nonpayable",
      "type": "function"
    },
    {
      "inputs": [],
      "name": "shutdown",
      "outputs": [],
      "stateMutability": "nonpayable",
      "type": "function"
    },
    {
      "inputs": [
        {
          "internalType": "contract IERC20",
          "name": "token1",
          "type": "address"
        },
        {
          "internalType": "contract IERC20",
          "name": "token2",
          "type": "address"
        }
      ],
      "name": "sortTokens",
      "outputs": [
        {
          "internalType": "contract IERC20",
          "name": "",
          "type": "address"
        },
        {
          "internalType": "contract IERC20",
          "name": "",
          "type": "address"
        }
      ],
      "stateMutability": "pure",
      "type": "function"
    },
    {
      "inputs": [],
      "name": "totalSupply",
      "outputs": [
        {
          "internalType": "uint256",
          "name": "",
          "type": "uint256"
        }
      ],
      "stateMutability": "view",
      "type": "function"
    },
    {
      "inputs": [
        {
          "internalType": "address",
          "name": "newOwner",
          "type": "address"
        }
      ],
      "name": "transferOwnership",
      "outputs": [],
      "stateMutability": "nonpayable",
      "type": "function"
    },
    {
      "inputs": [
        {
          "internalType": "address",
          "name": "account",
          "type": "address"
        },
        {
          "internalType": "uint256",
          "name": "newBalance",
          "type": "uint256"
        }
      ],
      "name": "updateStakeChanged",
      "outputs": [],
      "stateMutability": "nonpayable",
      "type": "function"
    },
    {
      "inputs": [
        {
          "internalType": "address[]",
          "name": "accounts",
          "type": "address[]"
        },
        {
          "internalType": "uint256[]",
          "name": "newBalances",
          "type": "uint256[]"
        }
      ],
      "name": "updateStakesChanged",
      "outputs": [],
      "stateMutability": "nonpayable",
      "type": "function"
    },
    {
      "inputs": [
        {
          "internalType": "uint256",
          "name": "vote",
          "type": "uint256"
        }
      ],
      "name": "voteGovernanceShare",
      "outputs": [],
      "stateMutability": "nonpayable",
      "type": "function"
    },
    {
      "inputs": [
        {
          "internalType": "uint256",
          "name": "vote",
          "type": "uint256"
        }
      ],
      "name": "voteReferralShare",
      "outputs": [],
      "stateMutability": "nonpayable",
      "type": "function"
    }
  ],
  "transactionHash": "0x1c8b517cae0b9f11aa698be95c2e8e30c4cd2657b1dc6be76701584137007297",
  "args": [
    "0xf39Fd6e51aad88F6F4ce6aB8827279cffFb92266",
    "0x68B1D87F95878fE05B998F19b66F4baba5De1aed",
    "0xf39Fd6e51aad88F6F4ce6aB8827279cffFb92266"
  ],
  "numDeployments": 1,
  "solcInputHash": "5c2e1cb50205ed71a0daeb9fe0a0c667",
  "bytecode": "0x60e06040523480156200001157600080fd5b5060405162002f5038038062002f5083398101604081905262000034916200028d565b606081901b6001600160601b031916608052806200005233620001dd565b6002805460ff60a01b191690556200007760006200022f602090811b620018b617901c565b6003600001600001600d6101000a8154816001600160681b0302191690836001600160681b03160217905550620000c1670de0b6b3a76400006200022f60201b620018b61760201c565b6007600001600001600d6101000a8154816001600160681b0302191690836001600160681b0316021790555062000104603c6200022f60201b620018b61760201c565b600b600001600001600d6101000a8154816001600160681b0302191690836001600160681b031602179055506200014e67016345785d8a00006200022f60201b620018b61760201c565b600f600001600001600d6101000a8154816001600160681b0302191690836001600160681b031602179055506200019160006200022f60201b620018b61760201c565b601380546001600160681b0392909216600160681b02600160681b600160d01b031990921691909117905550506001600160601b0319606092831b811660c052911b1660a052620002f9565b600280546001600160a01b038381166001600160a01b0319831681179093556040519116919082907f8be0079c531659141344cd1fd0a4f28419497f9722a3daafe3b4186f6b6457e090600090a35050565b6000600160681b8210620002895760405162461bcd60e51b815260206004820152601e60248201527f76616c756520646f6573206e6f742066697420696e2031303420626974730000604482015260640160405180910390fd5b5090565b600080600060608486031215620002a2578283fd5b8351620002af81620002e0565b6020850151909350620002c281620002e0565b6040850151909250620002d581620002e0565b809150509250925092565b6001600160a01b0381168114620002f657600080fd5b50565b60805160601c60a05160601c60c05160601c612c026200034e600039600081816106fb0152610d240152600081816106d40152610caf01526000818161044d01528181610f6001526111f90152612c026000f3fe608060405234801561001057600080fd5b50600436106102f15760003560e01c8063709893301161019d578063a42dce80116100e9578063d322d0f9116100a2578063e7ab4ac81161007c578063e7ab4ac814610773578063edb7a6fa146107a1578063f2fde38b146107c4578063fc0e74d1146107d757600080fd5b8063d322d0f91461071d578063d88ff1f414610730578063e1594b241461074557600080fd5b8063a42dce801461068e578063b975d0bb146106a1578063c16efeee146106a9578063c415b95c146106bc578063c6c1decd146106cf578063cf0b2270146106f657600080fd5b8063804d93fd116101565780638da5cb5b116101305780638da5cb5b1461064f5780638f53ecfe14610660578063901754d7146106735780639386e8b21461068657600080fd5b8063804d93fd1461062c578063855559341461063f5780638d4241271461064757600080fd5b8063709893301461059f57806370a08231146105b2578063715018a6146105db578063716d3ab9146105e357806375359a77146105eb5780637ac8c1c4146105fe57600080fd5b80634187b7d61161025c57806355727c4b116102155780635c975abb116101ef5780635c975abb1461055f5780635daac19214610571578063607c219f14610584578063612a9f761461059757600080fd5b806355727c4b146104fb57806358e90300146105295780635b16ebb71461053c57600080fd5b80634187b7d61461044857806341d1de9714610487578063442aa6c71461049a57806352feddde146104a2578063544caa56146104b5578063545e7c61146104e857600080fd5b806321bacf28116102ae57806321bacf28146103ac57806322f3e2d4146103b457806323a65ab6146103d357806324ea90341461040a5780633b90b9bf1461041d5780633eed75c31461044057600080fd5b80630462d658146102f65780630cbd9de9146103535780630d10085b146103745780630d3b4ea814610387578063151359b41461039a57806318160ddd146103a4575b600080fd5b6013546001600160681b0380821691600160681b810490911690600160d01b900465ffffffffffff165b604080516001600160681b03948516815293909216602084015265ffffffffffff16908201526060015b60405180910390f35b61036661036136600461271c565b6107df565b60405190815260200161034a565b61036661038236600461271c565b610815565b61036661039536600461271c565b610846565b6103a2610876565b005b600054610366565b6103666108cf565b600254600160a01b900460ff16155b604051901515815260200161034a565b6103db61091d565b6040805194855260208501939093526001600160a01b039182169284019290925216606082015260800161034a565b6103a26104183660046128c9565b6109d3565b6103c361042b36600461271c565b60196020526000908152604090205460ff1681565b6103a2610a56565b61046f7f000000000000000000000000000000000000000000000000000000000000000081565b6040516001600160a01b03909116815260200161034a565b61046f6104953660046128c9565b610ab6565b610366610ae0565b6103666104b036600461271c565b610b29565b6104c86104c3366004612875565b610b61565b604080516001600160a01b0393841681529290911660208301520161034a565b61046f6104f6366004612875565b610b95565b6003546001600160681b0380821691600160681b810490911690600160d01b900465ffffffffffff16610320565b6103a26105373660046128c9565b610e79565b6103c361054a36600461271c565b601b6020526000908152604090205460ff1681565b600254600160a01b900460ff166103c3565b6103a261057f366004612763565b610f55565b6103a261059236600461271c565b61109b565b6103a261111a565b60175461046f906001600160a01b031681565b6103666105c036600461271c565b6001600160a01b031660009081526001602052604090205490565b6103a2611171565b6103666111a5565b6103a26105f9366004612738565b6111ee565b600b546001600160681b0380821691600160681b810490911690600160d01b900465ffffffffffff16610320565b6103a261063a3660046128c9565b611274565b6103a2611364565b6103a26113a1565b6002546001600160a01b031661046f565b61036661066e36600461271c565b611401565b61046f610681366004612875565b611439565b610366611478565b6103a261069c36600461271c565b6114c1565b610366611553565b6103a26106b73660046128c9565b61159c565b60185461046f906001600160a01b031681565b61046f7f000000000000000000000000000000000000000000000000000000000000000081565b61046f7f000000000000000000000000000000000000000000000000000000000000000081565b6103a261072b3660046128c9565b611621565b6107386116a6565b60405161034a91906129fe565b600f546001600160681b0380821691600160681b810490911690600160d01b900465ffffffffffff16610320565b6007546001600160681b0380821691600160681b810490911690600160d01b900465ffffffffffff16610320565b6107a9611708565b6040805193845260208401929092529082015260600161034a565b6103a26107d236600461271c565b6117ec565b6103a2611884565b6001600160a01b0381166000908152600660209081526040808320815192830190915254815261080f908261190f565b92915050565b6001600160a01b0381166000908152600e60209081526040808320815192830190915254815261080f90603c61190f565b6001600160a01b0381166000908152601660209081526040808320815192830190915254815261080f908261190f565b33600081815260066020908152604080832081518084018352905481528151808401835284905281519283019091529181526108cd9291905b33600090815260016020526040812054600394939291611934611988565b565b604080516060810182526003546001600160681b038082168352600160681b8204166020830152600160d01b900465ffffffffffff1691810191909152600090610918906119a1565b905090565b60408051606081018252600f546001600160681b038082168352600160681b8204166020830152600160d01b900465ffffffffffff169181019190915260009081908190819061096c906119a1565b604080516060810182526013546001600160681b038082168352600160681b8204166020830152600160d01b900465ffffffffffff16918101919091526109b2906119a1565b60175460185492979196506001600160a01b03908116955090911692509050565b662386f26fc10000811115610a265760405162461bcd60e51b815260206004820152601460248201527308ccaca40acdee8ca4092e640a8dede4090d2ced60631b60448201526064015b60405180910390fd5b33600081815260066020908152604091829020825191820190925290548152610a5391906108af84611a35565b50565b33600081815260126020908152604080832081518084018352905481528151808401835284905281519283019091529181526108cd9291905b33600090815260016020526040902054600f9392919067016345785d8a0000611a64611988565b601a8181548110610ac657600080fd5b6000918252602090912001546001600160a01b0316905081565b604080516060810182526013546001600160681b038082168352600160681b8204166020830152600160d01b900465ffffffffffff1691810191909152600090610918906119a1565b6001600160a01b0381166000908152600a60209081526040808320815192830190915254815261080f90670de0b6b3a764000061190f565b600080826001600160a01b0316846001600160a01b03161015610b88575082905081610b8e565b50819050825b9250929050565b6000816001600160a01b0316836001600160a01b03161415610bf95760405162461bcd60e51b815260206004820152601d60248201527f53776170466163746f72793a204475706c696361746520546f6b656e730000006044820152606401610a1d565b600080610c068585610b61565b6001600160a01b038083166000908152601c6020908152604080832084861684529091529020549294509092501615610c815760405162461bcd60e51b815260206004820181905260248201527f53776170466163746f72793a20506f6f6c20416c7265616479204578697374736044820152606401610a1d565b6000610c95836001600160a01b0316611aae565b90506000610cab836001600160a01b0316611aae565b90507f00000000000000000000000000000000000000000000000000000000000000006001600160a01b031663b92440b085858585604051602001610cf1929190612998565b6040516020818303038152906040528686604051602001610d1392919061294c565b6040516020818303038152906040527f00000000000000000000000000000000000000000000000000000000000000006040518663ffffffff1660e01b8152600401610d63959493929190612a4b565b602060405180830381600087803b158015610d7d57600080fd5b505af1158015610d91573d6000803e3d6000fd5b505050506040513d601f19601f82011682018060405250810190610db591906128ad565b6001600160a01b038086166000818152601c6020908152604080832089861680855290835281842080549688166001600160a01b03199788168117909155601a805460018181019092557f057c384a7d1c54f3a1b2e5e67b2617b8224fdfd1ea7234eea573a6ff665ff63e0180549098168217909755808552601b909352818420805460ff19169096179095555194995092939192917fc95935a66d15e0da5e412aca0ad27ae891d20b2fb91cf3994b6a3bf2b81780829190a45050505092915050565b67016345785d8a0000811115610ed15760405162461bcd60e51b815260206004820152601f60248201527f526566657272616c20536861726520566f746520497320546f6f2048696768006044820152606401610a1d565b66b1a2bc2ec50000811015610f285760405162461bcd60e51b815260206004820152601e60248201527f526566657272616c20536861726520566f746520497320546f6f204c6f7700006044820152606401610a1d565b33600081815260126020908152604091829020825191820190925290548152610a539190610a8f84611a35565b336001600160a01b037f00000000000000000000000000000000000000000000000000000000000000001614610fcd5760405162461bcd60e51b815260206004820152601f60248201527f416363657373205265737472696374656420546f204d6f7468657273686970006044820152606401610a1d565b8281146110135760405162461bcd60e51b8152602060048201526014602482015273105c9c985e4813195b99dd1a08125b9d985b1a5960621b6044820152606401610a1d565b60005b838110156110945761108285858381811061104157634e487b7160e01b600052603260045260246000fd5b9050602002016020810190611056919061271c565b84848481811061107657634e487b7160e01b600052603260045260246000fd5b90506020020135611e0b565b8061108c81612b70565b915050611016565b5050505050565b6002546001600160a01b031633146110c55760405162461bcd60e51b8152600401610a1d90612a9d565b601780546001600160a01b0319166001600160a01b0383169081179091556040519081527fe348b7d1d8572de16c7301317890112a52bd7f6c3b713bd7d70e4cffb489ed9f906020015b60405180910390a150565b33600081815260166020908152604080832081518084018352905481528151808401835284905281519283019091529181526108cd9291905b33600090815260016020526040812054601394939291611f66611988565b6002546001600160a01b0316331461119b5760405162461bcd60e51b8152600401610a1d90612a9d565b6108cd6000611fb0565b60408051606081018252600f546001600160681b038082168352600160681b8204166020830152600160d01b900465ffffffffffff1691810191909152600090610918906119a1565b336001600160a01b037f000000000000000000000000000000000000000000000000000000000000000016146112665760405162461bcd60e51b815260206004820152601f60248201527f416363657373205265737472696374656420546f204d6f7468657273686970006044820152606401610a1d565b6112708282611e0b565b5050565b61012c8111156112c65760405162461bcd60e51b815260206004820152601d60248201527f446563617920506572696f6420566f746520497320546f6f20486967680000006044820152606401610a1d565b603c8110156113175760405162461bcd60e51b815260206004820152601c60248201527f446563617920506572696f6420566f746520497320546f6f204c6f77000000006044820152606401610a1d565b336000818152600e6020908152604091829020825191820190925290548152610a53919061134484611a35565b33600090815260016020526040902054600b93929190603c612002611988565b336000818152600e6020908152604080832081518084018352905481528151808401835284905281519283019091529181526108cd929190611344565b336000818152600a6020908152604080832081518084018352905481528151808401835284905281519283019091529181526108cd9291905b33600090815260016020526040902054600793929190670de0b6b3a764000061204c611988565b6001600160a01b0381166000908152601260209081526040808320815192830190915254815261080f9067016345785d8a000061190f565b60008060006114488585610b61565b6001600160a01b039182166000908152601c60209081526040808320938516835292905220541695945050505050565b60408051606081018252600b546001600160681b038082168352600160681b8204166020830152600160d01b900465ffffffffffff1691810191909152600090610918906119a1565b6002546001600160a01b031633146114eb5760405162461bcd60e51b8152600401610a1d90612a9d565b601880546001600160a01b0319166001600160a01b038316908117909155600081815260196020908152604091829020805460ff1916600117905590519182527ffa7dc4914c53d1cee4cf31f857b016d55f8c6d28d5f950e64c7258a4fa18de19910161110f565b604080516060810182526007546001600160681b038082168352600160681b8204166020830152600160d01b900465ffffffffffff1691810191909152600090610918906119a1565b670de0b6b3a76400008111156115f45760405162461bcd60e51b815260206004820152601d60248201527f536c6970706167652046656520566f746520497320546f6f20486967680000006044820152606401610a1d565b336000818152600a6020908152604091829020825191820190925290548152610a5391906113da84611a35565b67016345785d8a00008111156116795760405162461bcd60e51b815260206004820152601e60248201527f476f7665726e616e636520536861726520566f746520546f6f204869676800006044820152606401610a1d565b33600081815260166020908152604091829020825191820190925290548152610a53919061115384611a35565b6060601a8054806020026020016040519081016040528092919081815260200182805480156116fe57602002820191906000526020600020905b81546001600160a01b031681526001909101906020018083116116e0575b5050505050905090565b604080516060810182526003546001600160681b038082168352600160681b8204166020830152600160d01b900465ffffffffffff169181019190915260009081908190611755906119a1565b604080516060810182526007546001600160681b038082168352600160681b8204166020830152600160d01b900465ffffffffffff169181019190915261179b906119a1565b60408051606081018252600b546001600160681b038082168352600160681b8204166020830152600160d01b900465ffffffffffff16918101919091526117e1906119a1565b925092509250909192565b6002546001600160a01b031633146118165760405162461bcd60e51b8152600401610a1d90612a9d565b6001600160a01b03811661187b5760405162461bcd60e51b815260206004820152602660248201527f4f776e61626c653a206e6577206f776e657220697320746865207a65726f206160448201526564647265737360d01b6064820152608401610a1d565b610a5381611fb0565b6002546001600160a01b031633146118ae5760405162461bcd60e51b8152600401610a1d90612a9d565b6108cd612096565b6000600160681b821061190b5760405162461bcd60e51b815260206004820152601e60248201527f76616c756520646f6573206e6f742066697420696e20313034206269747300006044820152606401610a1d565b5090565b81516000901561192e57825161192790600190612b29565b905061080f565b50919050565b6040805184815283151560208201529081018290526001600160a01b038516907f28eed64d01e23014333abef902958309592b3cf9ce9da390f224467cfcaaf5b2906060015b60405180910390a250505050565b611998878787878788888861213b565b50505050505050565b6000806119cf620151806119ca856040015165ffffffffffff164261230890919063ffffffff16565b61231b565b905060006119e06201518083612308565b9050611a2d62015180611a27611a0c8588602001516001600160681b031661233190919063ffffffff16565b8751611a21906001600160681b031686612331565b9061233d565b90612349565b949350505050565b6040805160208101909152600081526040518060200160405280836001611a5c9190612ad2565b905292915050565b6040805184815283151560208201529081018290526001600160a01b038516907ffa67c3ef5d30b2838a61d783cb71a076e17984d05840f2dfa1521135df49557b9060600161197a565b60606001600160a01b038216611add57505060408051808201909152600381526221272160e91b602082015290565b60408051600481526024810182526020810180516001600160e01b03166395d89b4160e01b179052905160009182916001600160a01b03861691614e2091611b259190612930565b6000604051808303818686fa925050503d8060008114611b61576040519150601f19603f3d011682016040523d82523d6000602084013e611b66565b606091505b509150915081611bfb5760408051600481526024810182526020810180516001600160e01b0316631eedf1af60e31b17905290516001600160a01b03861691614e2091611bb39190612930565b6000604051808303818686fa925050503d8060008114611bef576040519150601f19603f3d011682016040523d82523d6000602084013e611bf4565b606091505b5090925090505b818015611c0a57506060815110155b15611c6e5760008082806020019051810190611c2691906128e1565b91509150816020148015611c3a5750600081115b8015611c4857506101008111155b15611c6b5782806020019051810190611c6191906127cc565b9695505050505050565b50505b818015611c7c575080516020145b15611e025760005b815181108015611cc65750602060f81b828281518110611cb457634e487b7160e01b600052603260045260246000fd5b01602001516001600160f81b03191610155b8015611d045750607e60f81b828281518110611cf257634e487b7160e01b600052603260045260246000fd5b01602001516001600160f81b03191611155b15611d1b5780611d1381612b70565b915050611c84565b8015611e005760008167ffffffffffffffff811115611d4a57634e487b7160e01b600052604160045260246000fd5b6040519080825280601f01601f191660200182016040528015611d74576020820181803683370190505b50905060005b82811015611df657838181518110611da257634e487b7160e01b600052603260045260246000fd5b602001015160f81c60f81b828281518110611dcd57634e487b7160e01b600052603260045260246000fd5b60200101906001600160f81b031916908160001a90535080611dee81612b70565b915050611d7a565b5095945050505050565b505b611a2d84612355565b6000611e17838361238d565b905080821415611e2657505050565b6001600160a01b03831660009081526006602090815260408083208151928301909152548152611e61916003918691859087906119346123e8565b6001600160a01b0383166000908152600a6020908152604091829020825191820190925290548152611ea59060079085908486670de0b6b3a764000061204c6123e8565b6001600160a01b0383166000908152600e6020908152604091829020825191820190925290548152611ee290600b9085908486603c6120026123e8565b6001600160a01b038316600090815260126020908152604091829020825191820190925290548152611f2690600f908590848667016345785d8a0000611a646123e8565b6001600160a01b03831660009081526016602090815260408083208151928301909152548152611f6191601391869185908790611f666123e8565b505050565b6040805184815283151560208201529081018290526001600160a01b038516907f02540a8a88261967ef1c1a4ed50fde9f0a0a493922c069129e21961198e1b4399060600161197a565b600280546001600160a01b038381166001600160a01b0319831681179093556040519116919082907f8be0079c531659141344cd1fd0a4f28419497f9722a3daafe3b4186f6b6457e090600090a35050565b6040805184815283151560208201529081018290526001600160a01b038516907f2d2d732aa884d37295a1b5995321d502ebc228d25e644eef0a435d4e5f245acd9060600161197a565b6040805184815283151560208201529081018290526001600160a01b038516907f214419d1bacc9564ca0fcf6552dad3ec0aa54c97de900de89dc202e6bbd9198a9060600161197a565b600254600160a01b900460ff16156120e35760405162461bcd60e51b815260206004820152601060248201526f14185d5cd8589b194e881c185d5cd95960821b6044820152606401610a1d565b6002805460ff60a01b1916600160a01b1790557f62e78cea01bee320cd4e420270b5ea74000d11b0c9f74754ebdbfc544b05a25861211e3390565b6040516001600160a01b03909116815260200160405180910390a1565b600188015460028901548190806121518a511590565b6121825761217361216c6121658c8961190f565b8a90612331565b8490612308565b925061217f8189612308565b90505b8851156121b6576121a76121a06121998b8961190f565b8990612331565b849061233d565b92506121b3818861233d565b90505b8383146121c55760018c018390555b8181146121d45760028c018190555b600081156121eb576121e68483612349565b6121ed565b865b604080516060810182528f546001600160681b038082168352600160681b82041660208301819052600160d01b90910465ffffffffffff169282019290925291925082146122b557604080516060810182528f546001600160681b038082168352600160681b8204166020830152600160d01b900465ffffffffffff169181019190915261228261227d836119a1565b6118b6565b61228b846118b6565b6122944261241f565b65ffffffffffff1660408401526001600160681b0390811660208401521690525b505089518951146122df576001600160a01b038b16600090815260038d0160205260409020895190555b6122fa8b6122ed8b8961190f565b8b51158a8963ffffffff16565b505050505050505050505050565b60006123148284612b29565b9392505050565b600081831061232a5781612314565b5090919050565b60006123148284612b0a565b60006123148284612ad2565b60006123148284612aea565b604051606082811b6bffffffffffffffffffffffff191660208301529061080f90603401604051602081830303815290604052612477565b6001600160a01b03821660009081526001602052604090205481811461080f576001600160a01b0383166000908152600160205260408120839055546123df9082906123d9908561233d565b90612308565b60005592915050565b61199887878786156123fa5788612416565b6040805160208082018352600091829052825190810190925281525b8888888861213b565b60006601000000000000821061190b5760405162461bcd60e51b815260206004820152601d60248201527f76616c756520646f6573206e6f742066697420696e20343820626974730000006044820152606401610a1d565b60606000825160026124899190612b0a565b612494906002612ad2565b67ffffffffffffffff8111156124ba57634e487b7160e01b600052604160045260246000fd5b6040519080825280601f01601f1916602001820160405280156124e4576020820181803683370190505b509050600360fc1b8160008151811061250d57634e487b7160e01b600052603260045260246000fd5b60200101906001600160f81b031916908160001a905350600f60fb1b8160018151811061254a57634e487b7160e01b600052603260045260246000fd5b60200101906001600160f81b031916908160001a905350600260005b84518110156126d0576000600486838151811061259357634e487b7160e01b600052603260045260246000fd5b602001015160f81c60f81b60f81c60ff16901c60ff16905060008683815181106125cd57634e487b7160e01b600052603260045260246000fd5b60209101015160f81c600f1690506125e6600a83612aea565b6125f1906027612b0a565b6125fc836030612ad2565b6126069190612ad2565b60f81b858561261481612b70565b96508151811061263457634e487b7160e01b600052603260045260246000fd5b60200101906001600160f81b031916908160001a905350612656600a82612aea565b612661906027612b0a565b61266c826030612ad2565b6126769190612ad2565b60f81b858561268481612b70565b9650815181106126a457634e487b7160e01b600052603260045260246000fd5b60200101906001600160f81b031916908160001a905350505080806126c890612b70565b915050612566565b50909392505050565b60008083601f8401126126ea578081fd5b50813567ffffffffffffffff811115612701578182fd5b6020830191508360208260051b8501011115610b8e57600080fd5b60006020828403121561272d578081fd5b813561231481612bb7565b6000806040838503121561274a578081fd5b823561275581612bb7565b946020939093013593505050565b60008060008060408587031215612778578182fd5b843567ffffffffffffffff8082111561278f578384fd5b61279b888389016126d9565b909650945060208701359150808211156127b3578384fd5b506127c0878288016126d9565b95989497509550505050565b6000602082840312156127dd578081fd5b815167ffffffffffffffff808211156127f4578283fd5b818401915084601f830112612807578283fd5b81518181111561281957612819612ba1565b604051601f8201601f19908116603f0116810190838211818310171561284157612841612ba1565b81604052828152876020848701011115612859578586fd5b61286a836020830160208801612b40565b979650505050505050565b60008060408385031215612887578182fd5b823561289281612bb7565b915060208301356128a281612bb7565b809150509250929050565b6000602082840312156128be578081fd5b815161231481612bb7565b6000602082840312156128da578081fd5b5035919050565b600080604083850312156128f3578182fd5b505080516020909101519092909150565b6000815180845261291c816020860160208601612b40565b601f01601f19169290920160200192915050565b60008251612942818460208701612b40565b9190910192915050565b6000835161295e818460208801612b40565b602d60f81b908301908152835161297c816001840160208801612b40565b6202d4c560ec1b60019290910191820152600401949350505050565b6f098d2e2ead2c8d2e8f240a0deded840560831b8152600083516129c3816010850160208801612b40565b602d60f81b60109184019182015283516129e4816011840160208801612b40565b602960f81b60119290910191820152601201949350505050565b6020808252825182820181905260009190848201906040850190845b81811015612a3f5783516001600160a01b031683529284019291840191600101612a1a565b50909695505050505050565b600060018060a01b038088168352808716602084015260a06040840152612a7560a0840187612904565b8381036060850152612a878187612904565b9250508084166080840152509695505050505050565b6020808252818101527f4f776e61626c653a2063616c6c6572206973206e6f7420746865206f776e6572604082015260600190565b60008219821115612ae557612ae5612b8b565b500190565b600082612b0557634e487b7160e01b81526012600452602481fd5b500490565b6000816000190483118215151615612b2457612b24612b8b565b500290565b600082821015612b3b57612b3b612b8b565b500390565b60005b83811015612b5b578181015183820152602001612b43565b83811115612b6a576000848401525b50505050565b6000600019821415612b8457612b84612b8b565b5060010190565b634e487b7160e01b600052601160045260246000fd5b634e487b7160e01b600052604160045260246000fd5b6001600160a01b0381168114610a5357600080fdfea26469706673582212205bd54d9e694c8c670fc5a394335a807ad0f8a83678899f3183f3459efdf5156464736f6c63430008040033",
  "devdoc": {
    "kind": "dev",
    "methods": {
      "owner()": {
        "details": "Returns the address of the current owner."
      },
      "paused()": {
        "details": "Returns true if the contract is paused, and false otherwise."
      },
      "renounceOwnership()": {
        "details": "Leaves the contract without owner. It will not be possible to call `onlyOwner` functions anymore. Can only be called by the current owner. NOTE: Renouncing ownership will leave the contract without an owner, thereby removing any functionality that is only available to the owner."
      },
      "transferOwnership(address)": {
        "details": "Transfers ownership of the contract to a new account (`newOwner`). Can only be called by the current owner."
      }
    },
    "version": 1
  },
  "userdoc": {
    "kind": "user",
    "methods": {
      "defaultVoteDecayPeriod(uint256)": {
        "notice": "Records `msg.senders`'s vote for decay period "
      },
      "defaultVoteFee(uint256)": {
        "notice": "Records `msg.senders`'s vote for fee "
      },
      "defaultVoteSlippageFee(uint256)": {
        "notice": "Records `msg.senders`'s vote for slippage fee "
      },
      "defaults()": {
        "notice": "Initial settings that contract was created "
      },
      "discardDefaultDecayPeriodVote()": {
        "notice": "Retracts `msg.senders`'s vote for decay period "
      },
      "discardDefaultFeeVote()": {
        "notice": "Retracts `msg.senders`'s vote for fee "
      },
      "discardDefaultSlippageFeeVote()": {
        "notice": "Retracts `msg.senders`'s vote for slippage fee "
      },
      "discardGovernanceShareVote()": {
        "notice": "Retracts `msg.senders`'s vote for governance share "
      },
      "discardReferralShareVote()": {
        "notice": "Retracts `msg.senders`'s vote for referral share "
      },
      "feeCollector()": {
        "notice": "Returns the value of fee collector wallet address "
      },
      "getDefaultDecayPeriod()": {
        "notice": "Returns the value of default decay period "
      },
      "getDefaultFee()": {
        "notice": "Returns the value of default fee "
      },
      "getDefaultSlippageFee()": {
        "notice": "Returns the value of default slippage fee "
      },
      "getGovernanceShare()": {
        "notice": "Returns the value of governance share "
      },
      "getReferralShare()": {
        "notice": "Returns the value of referral share "
      },
      "getShareParameters()": {
        "notice": "Returns information about mooniswap shares "
      },
      "getVirtualDefaultDecayPeriod()": {
        "notice": "Returns previous default decay period that had place,  current one and time on which this changed "
      },
      "getVirtualDefaultFee()": {
        "notice": "Returns previous default fee that had place,  current one and time on which this changed "
      },
      "getVirtualDefaultSlippageFee()": {
        "notice": "Returns previous default slippage fee that had place,  current one and time on which this changed "
      },
      "governanceWallet()": {
        "notice": "Returns the value of governance wallet address "
      },
      "isActive()": {
        "notice": "Whether the contract is currently working and wasn't stopped. "
      },
      "isFeeCollector(address)": {
        "notice": "Whether the address is current fee collector or was in the past. "
      },
      "isPool(address)": {
        "notice": "If address is currently listed as a swap pool. Otherwise, false "
      },
      "pools(address,address)": {
        "notice": "Returns a pool for tokens pair.  Zero address result means that pool doesn't exist yet "
      },
      "voteGovernanceShare(uint256)": {
        "notice": "Records `msg.senders`'s vote for governance share "
      },
      "voteReferralShare(uint256)": {
        "notice": "Records `msg.senders`'s vote for referral share "
      }
    },
    "version": 1
  },
  "storageLayout": {
    "storage": [
      {
        "astId": 8998,
        "contract": "contracts/SwapFactory.sol:SwapFactory",
        "label": "_totalSupply",
        "offset": 0,
        "slot": "0",
        "type": "t_uint256"
      },
      {
        "astId": 9002,
        "contract": "contracts/SwapFactory.sol:SwapFactory",
        "label": "_balances",
        "offset": 0,
        "slot": "1",
        "type": "t_mapping(t_address,t_uint256)"
      },
      {
        "astId": 7,
        "contract": "contracts/SwapFactory.sol:SwapFactory",
        "label": "_owner",
        "offset": 0,
        "slot": "2",
        "type": "t_address"
      },
      {
        "astId": 122,
        "contract": "contracts/SwapFactory.sol:SwapFactory",
        "label": "_paused",
        "offset": 20,
        "slot": "2",
        "type": "t_bool"
      },
      {
        "astId": 7210,
        "contract": "contracts/SwapFactory.sol:SwapFactory",
        "label": "_defaultFee",
        "offset": 0,
        "slot": "3",
        "type": "t_struct(Data)9998_storage"
      },
      {
        "astId": 7213,
        "contract": "contracts/SwapFactory.sol:SwapFactory",
        "label": "_defaultSlippageFee",
        "offset": 0,
        "slot": "7",
        "type": "t_struct(Data)9998_storage"
      },
      {
        "astId": 7216,
        "contract": "contracts/SwapFactory.sol:SwapFactory",
        "label": "_defaultDecayPeriod",
        "offset": 0,
        "slot": "11",
        "type": "t_struct(Data)9998_storage"
      },
      {
        "astId": 7219,
        "contract": "contracts/SwapFactory.sol:SwapFactory",
        "label": "_referralShare",
        "offset": 0,
        "slot": "15",
        "type": "t_struct(Data)9998_storage"
      },
      {
        "astId": 7222,
        "contract": "contracts/SwapFactory.sol:SwapFactory",
        "label": "_governanceShare",
        "offset": 0,
        "slot": "19",
        "type": "t_struct(Data)9998_storage"
      },
      {
        "astId": 7226,
        "contract": "contracts/SwapFactory.sol:SwapFactory",
        "label": "governanceWallet",
        "offset": 0,
        "slot": "23",
        "type": "t_address"
      },
      {
        "astId": 7230,
        "contract": "contracts/SwapFactory.sol:SwapFactory",
        "label": "feeCollector",
        "offset": 0,
        "slot": "24",
        "type": "t_address"
      },
      {
        "astId": 7235,
        "contract": "contracts/SwapFactory.sol:SwapFactory",
        "label": "isFeeCollector",
        "offset": 0,
        "slot": "25",
        "type": "t_mapping(t_address,t_bool)"
      },
      {
        "astId": 4977,
        "contract": "contracts/SwapFactory.sol:SwapFactory",
        "label": "allPools",
        "offset": 0,
        "slot": "26",
        "type": "t_array(t_contract(Swap)4941)dyn_storage"
      },
      {
        "astId": 4983,
        "contract": "contracts/SwapFactory.sol:SwapFactory",
        "label": "isPool",
        "offset": 0,
        "slot": "27",
        "type": "t_mapping(t_contract(Swap)4941,t_bool)"
      },
      {
        "astId": 4992,
        "contract": "contracts/SwapFactory.sol:SwapFactory",
        "label": "_pools",
        "offset": 0,
        "slot": "28",
        "type": "t_mapping(t_contract(IERC20)902,t_mapping(t_contract(IERC20)902,t_contract(Swap)4941))"
      }
    ],
    "types": {
      "t_address": {
        "encoding": "inplace",
        "label": "address",
        "numberOfBytes": "20"
      },
      "t_array(t_contract(Swap)4941)dyn_storage": {
        "base": "t_contract(Swap)4941",
        "encoding": "dynamic_array",
        "label": "contract Swap[]",
        "numberOfBytes": "32"
      },
      "t_bool": {
        "encoding": "inplace",
        "label": "bool",
        "numberOfBytes": "1"
      },
      "t_contract(IERC20)902": {
        "encoding": "inplace",
        "label": "contract IERC20",
        "numberOfBytes": "20"
      },
      "t_contract(Swap)4941": {
        "encoding": "inplace",
        "label": "contract Swap",
        "numberOfBytes": "20"
      },
      "t_mapping(t_address,t_bool)": {
        "encoding": "mapping",
        "key": "t_address",
        "label": "mapping(address => bool)",
        "numberOfBytes": "32",
        "value": "t_bool"
      },
      "t_mapping(t_address,t_struct(Data)11542_storage)": {
        "encoding": "mapping",
        "key": "t_address",
        "label": "mapping(address => struct Vote.Data)",
        "numberOfBytes": "32",
        "value": "t_struct(Data)11542_storage"
      },
      "t_mapping(t_address,t_uint256)": {
        "encoding": "mapping",
        "key": "t_address",
        "label": "mapping(address => uint256)",
        "numberOfBytes": "32",
        "value": "t_uint256"
      },
      "t_mapping(t_contract(IERC20)902,t_contract(Swap)4941)": {
        "encoding": "mapping",
        "key": "t_contract(IERC20)902",
        "label": "mapping(contract IERC20 => contract Swap)",
        "numberOfBytes": "32",
        "value": "t_contract(Swap)4941"
      },
      "t_mapping(t_contract(IERC20)902,t_mapping(t_contract(IERC20)902,t_contract(Swap)4941))": {
        "encoding": "mapping",
        "key": "t_contract(IERC20)902",
        "label": "mapping(contract IERC20 => mapping(contract IERC20 => contract Swap))",
        "numberOfBytes": "32",
        "value": "t_mapping(t_contract(IERC20)902,t_contract(Swap)4941)"
      },
      "t_mapping(t_contract(Swap)4941,t_bool)": {
        "encoding": "mapping",
        "key": "t_contract(Swap)4941",
        "label": "mapping(contract Swap => bool)",
        "numberOfBytes": "32",
        "value": "t_bool"
      },
      "t_struct(Data)11482_storage": {
        "encoding": "inplace",
        "label": "struct VirtualVote.Data",
        "members": [
          {
            "astId": 11477,
            "contract": "contracts/SwapFactory.sol:SwapFactory",
            "label": "oldResult",
            "offset": 0,
            "slot": "0",
            "type": "t_uint104"
          },
          {
            "astId": 11479,
            "contract": "contracts/SwapFactory.sol:SwapFactory",
            "label": "result",
            "offset": 13,
            "slot": "0",
            "type": "t_uint104"
          },
          {
            "astId": 11481,
            "contract": "contracts/SwapFactory.sol:SwapFactory",
            "label": "time",
            "offset": 26,
            "slot": "0",
            "type": "t_uint48"
          }
        ],
        "numberOfBytes": "32"
      },
      "t_struct(Data)11542_storage": {
        "encoding": "inplace",
        "label": "struct Vote.Data",
        "members": [
          {
            "astId": 11541,
            "contract": "contracts/SwapFactory.sol:SwapFactory",
            "label": "value",
            "offset": 0,
            "slot": "0",
            "type": "t_uint256"
          }
        ],
        "numberOfBytes": "32"
      },
      "t_struct(Data)9998_storage": {
        "encoding": "inplace",
        "label": "struct ExplicitLiquidVoting.Data",
        "members": [
          {
            "astId": 9988,
            "contract": "contracts/SwapFactory.sol:SwapFactory",
            "label": "data",
            "offset": 0,
            "slot": "0",
            "type": "t_struct(Data)11482_storage"
          },
          {
            "astId": 9990,
            "contract": "contracts/SwapFactory.sol:SwapFactory",
            "label": "weightedSum",
            "offset": 0,
            "slot": "1",
            "type": "t_uint256"
          },
          {
            "astId": 9992,
            "contract": "contracts/SwapFactory.sol:SwapFactory",
            "label": "votedSupply",
            "offset": 0,
            "slot": "2",
            "type": "t_uint256"
          },
          {
            "astId": 9997,
            "contract": "contracts/SwapFactory.sol:SwapFactory",
            "label": "votes",
            "offset": 0,
            "slot": "3",
            "type": "t_mapping(t_address,t_struct(Data)11542_storage)"
          }
        ],
        "numberOfBytes": "128"
      },
      "t_uint104": {
        "encoding": "inplace",
        "label": "uint104",
        "numberOfBytes": "13"
      },
      "t_uint256": {
        "encoding": "inplace",
        "label": "uint256",
        "numberOfBytes": "32"
      },
      "t_uint48": {
        "encoding": "inplace",
        "label": "uint48",
        "numberOfBytes": "6"
      }
    }
  }
}